:100000000C94F8010C9429020C9429020C942902F6
:100010000C9429020C9429020C9429020C942902B4
:100020000C9429020C94FF110C94FF110C94FF11F5
:100030000C9429020C9429020C9429020C94290294
:100040000C9429020C94B7130C9429020C942902E5
:100050000C9429020C9429020C9429020C94B511D9
:100060000C9429020C947F110C9455110C942902C4
:100070000C9429020C9429020C9429020C94290254
:100080000C9489130C9429020C9429020C942902D3
:100090000C9429020C9429020C9429020C94091244
:1000A0000C9429020C9429020C945B130C942902E1
:1000B0000C9429020C9429020C9429020C942D13FF
:1000C0000C9429020C9429020C9429020C941F11FF
:1000D0000C94F5100C9429020C9429020C9429021A
:1000E0000C9429020C9471020C947F0E0C94D81875
:1000F0000C941C040C9401040C94B7060C94E218A4
:100100000C94B0020C9434040C9410190C94140444
:100110000C94F9030C9422040C948D060C94E303C4
:100120000C942A040C94B70E0C94C4020C9426046C
:100130000C9413070C94D1180C9418040C94AF0E63
:100140000C94890E0C9430040C9414030C946103E9
:100150000C94F6180C949D0E0C94A70E0C94020FA0
:100160000C94B0060C9417190C949C180C94E91874
:100170000C9490180C94D2020C9474020C94A1026A
:100180000C94CB180C94D50E0C94930E0C94651B08
:100190000C9472020C94FD030C94EE0E0C94840EDD
:1001A0000C940E040C940C0F0C948E060C941E14DC
:1001B0000C949D060C94E4060C9403190C943119CC
:1001C0000C94DF180C94C10E0C9404040C94F80EDB
:1001D0000C94E40E0C94CB0E0C940A040C94F503CE
:1001E0000C9424190C94DE030C94160F00407A1022
:1001F000F35A00A0724E18090010A5D4E80000E8D8
:100200007648170000E40B54020000CA9A3B000035
:1002100000E1F505000080969800000040420F00C4
:100220000000A08601000000102700000000E80385
:10023000000000006400000000000A000000000050
:100240000100000000002C76D888DC674F0823DF0F
:10025000C1DFAE59E1B1B796E5E3E453C63AE651E2
:10026000997696E8E6C28426EB898C9B62ED407C09
:100270006FFCEFBC9C9F40F2BAA56FA5F490055AA5
:100280002AF75C936B6CF9676DC11BFCE0E40D47CA
:10029000FEF520E6B500D0ED902E030094357705ED
:1002A0000080841E080000204E0A000000C80C33A5
:1002B0003333330F986E12831141EF8D2114893B34
:1002C000E65516CFFEE6DB18D1844B381BF77C1DB4
:1002D000901DA4BBE424203284725E228100C9F107
:1002E00024ECA1E53D2700000A0B02090C0D0E08C5
:1002F00007030401000000000000000000000000EF
:1003000000000000000000000000000000000000ED
:1003100000001211100000000000000000000000AA
:1003200000000000000000000000000000002200AB
:10033000250028002B002E003100340002010000AF
:10034000050108010B0100002100240027002A00FC
:100350002D003000330001010000040107010A01F3
:1003600005050505070508080808020202020A0A31
:10037000080804040404010101010101010103034F
:10038000030303030303040707070C0C0C0C0C0CFA
:100390000C0C0202020206060606060606060B0BF7
:1003A0000B0B0B0B0B0B0102102020080810204038
:1003B0001020408002010201080402010102040829
:1003C00010204080804020100804020180040201B7
:1003D0008040201008040201080402010102040800
:1003E0001020408001020408102040801E14651B6C
:1003F00011241FBECFEFD1E2DEBFCDBF00E00CBFA6
:1004000012E0A0E0B2E0E4E4F6E400E00BBF02C0DA
:1004100007900D92A63EB107D9F726E0A6EEB2E00E
:1004200001C01D92A137B207E1F711E0C7EFD1E09B
:1004300000E006C021970109802FFE010E94DA200A
:10044000C63FD10780E00807A9F70E9431150C9438
:1004500010230C940000FC01A089B18982E08C93E8
:10046000A485B5851C92A685B7858FEC8C93108EDC
:10047000A489B58986E08C93A289B3898C91806127
:100480008C93A289B3898C9188608C93A289B3895B
:100490008C9180688C930288F389E02D80818F7D18
:1004A0008083089590E0FC01EA55FC4F2491805A26
:1004B0009C4FFC018491882399F090E0880F991F4C
:1004C000FC01EA5BFC4FA591B491FC01E45DFC4F9B
:1004D000859194918FB7F894EC91E22BEC938FBFB8
:1004E0000895089508950895AF92BF92CF92DF9234
:1004F000EF92FF920F931F93CF93DF936C017B01D9
:100500008B01040F151FEB015E01AE18BF08C01769
:10051000D10759F06991D601ED91FC910190F081DC
:10052000E02DC6011995892B79F7C501DF91CF918F
:100530001F910F91FF90EF90DF90CF90BF90AF9001
:100540000895FC01538D448D252F30E0842F90E0D9
:10055000821B930B541710F0CF96089501970895BE
:10056000FC01918D828D981761F0A28DAE0FBF2F87
:10057000B11D5D968C91928D9F5F9F73928F90E0DD
:1005800008958FEF9FEF0895FC01918D828D98174C
:1005900031F0828DE80FF11D858D90E008958FEF89
:1005A0009FEF0895FC01918D228D892F90E0805C52
:1005B0009F4F821B91098F73992708958CE494E0D3
:1005C0000E94D20221E0892B09F420E0822F0895B5
:1005D00089EE94E00E94D20221E0892B09F420E008
:1005E000822F0895FC01A48DA80FB92FB11DA35A25
:1005F000BF4F2C91848D90E001968F739927848F43
:10060000A689B7892C93A089B1898C918370806465
:100610008C93938D848D981306C00288F389E02D06
:1006200080818F7D80830895EF92FF920F931F93B7
:10063000CF93DF93EC0181E0888F9B8D8C8D981395
:100640001AC0E889F989808185FF15C09FB7F894A1
:10065000EE89FF896083E889F989808183708064ED
:1006600080839FBF81E090E0DF91CF911F910F9138
:10067000FF90EF900895F62E0B8D10E00F5F1F4F47
:100680000F731127E02E8C8D8E110CC00FB607FC56
:10069000FACFE889F989808185FFF5CFCE010E94E4
:1006A000F202F1CFEB8DEC0FFD2FF11DE35AFF4F5E
:1006B000F0829FB7F8940B8FEA89FB898081806272
:1006C000CFCFCF93DF93EC01888D8823B9F0AA892F
:1006D000BB89E889F9898C9185FD03C0808186FDFD
:1006E0000DC00FB607FCF7CF8C9185FFF2CF80814C
:1006F00085FFEDCFCE010E94F202E9CFDF91CF91CD
:10070000089580E090E0892B29F00E94E802811191
:100710000E94000080E090E0892B49F080E090E0AA
:10072000892B29F00E94000081110E94000080E0C6
:1007300090E0892B29F00E94DE0281110E940000C6
:1007400080E090E0892B49F080E090E0892B29F04F
:100750000E94000081110C9400000895282F30E0C1
:10076000F901EA51FD4F9491F901EA55FC4F44918A
:10077000205A3C4FF9012491222309F435C09923D2
:1007800011F191509231F8F4E92FF0E08827E45309
:10079000FC4F8F4F0C94DA20FD030104DE03F503B8
:1007A000F903E30304040A040E04140418041C04EB
:1007B00022042604E3032A043004340480918000D8
:1007C0008F7780938000E22FF0E0EE0FFF1FE45D53
:1007D000FC4FA591B4918FB7F894EC91611148C08A
:1007E00040954E234C938FBF0895809180008F7D5C
:1007F000E8CF80918000877FE4CF84B58F7784BD78
:10080000E2CF84B58F7DFBCF8091B0008F7780934E
:10081000B000D9CF8091B0008F7DF9CF809190004A
:100820008F7780939000CFCF809190008F7DF9CF0C
:1008300080919000877FF5CF8091A0008F77809383
:10084000A000C1CF8091A0008F7DF9CF8091A00042
:10085000877FF5CF809120018F7780932001B3CFE0
:10086000809120018F7DF9CF80912001877FF5CF86
:100870004E2BB8CF90917B00977F90937B0086534F
:10088000806480937C0080917A00806480937A00F9
:1008900080917A0086FDFCCF80917800909179005C
:1008A00008953FB7F8948091C6039091C703A09133
:1008B000C803B091C90326B5A89B05C02F3F19F006
:1008C0000196A11DB11D3FBFBA2FA92F982F8827D0
:1008D000BC01CD01620F711D811D911D42E0660FAB
:1008E000771F881F991F4A95D1F708958F929F927D
:1008F000AF92BF92CF92DF92EF92FF924B015C01D9
:100900000E9451046B017C010E9451046C197D0905
:100910008E099F09683E734081059105A8F321E087
:10092000821A9108A108B10888EEC80E83E0D81E8B
:10093000E11CF11C81149104A104B10429F7FF907A
:10094000EF90DF90CF90BF90AF909F908F900895E1
:100950002FB7F8946091C2037091C3038091C403D0
:100960009091C5032FBF0895CF93DF93EC018A8543
:100970009B85AC85BD858E839F83A887B9870E94A0
:10098000A8046A837B838C839D8381E08983888329
:10099000DF91CF910895CF93DF93EC018E819F81FA
:1009A000A885B9858A839B83AC83BD830E94A804F4
:1009B0006A877B878C879D8781E089838883DF9125
:1009C000CF91089520919C03260F3327331F2132A6
:1009D0003105ECF420912204FC0190E080E0243009
:1009E00069F082E00895A0919C032191AC014458E4
:1009F0005C4FA40FB52FB11D2C930196861798F369
:100A000080919C03680F60939C0380E0089581E0CF
:100A100008951092220481E0809321041092FC0337
:100A200061E084E10E94AE0361E085E10E94AE03D3
:100A3000E9EBF0E080818E7F808380818D7F8083F1
:100A400088E48093B80085E48093BC000895CF9338
:100A5000DF9391E090937B038823B9F0C091B800B5
:100A6000D091BA008091BC008A7B8093BC0060E08A
:100A700084E10E94AE0360E085E10E94AE030E9423
:100A80000905D093BA00C093B800DF91CF910895C3
:100A90008F929F92AF92BF92CF92DF92EF92FF928E
:100AA0000F931F93CF93DF93D0914B04D13208F073
:100AB000D7C0182FC0914A040E9451046B017C01D9
:100AC0008091220481116BC082E0809322041093F4
:100AD00021048FEF8093200410921F04D0931E04F2
:100AE000AAE2B4E0EEEFF3E080E0D81391C01092F8
:100AF000FD038091FD03CC0FC82BC093FD038091B3
:100B0000FC03813009F088C01092FC030E9451045C
:100B10006B017C018091FD038093BB0080912404D4
:100B200090912504A0912604B0912704892B8A2B4B
:100B30008B2BA1F00E9451040091240410912504F4
:100B400020912604309127046C197D098E099F0994
:100B5000061717072807390708F442C08091BC0020
:100B600083FDD8CF85EC8093BC000E9451046B01BB
:100B70007C0180912204823009F450C080912004CD
:100B80008F3F09F46FC080912004803209F46CC05B
:100B900080912004803309F469C084E026C08091EC
:100BA000240490912504A0912604B0912704892B58
:100BB0008A2B8B2B09F484CF0E945104809024044B
:100BC00090902504A0902604B09027046C197D090C
:100BD0008E099F0986169706A806B90608F070CFF9
:100BE000809123040E94270585E010922904109229
:100BF0004B0410922804DF91CF911F910F91FF9029
:100C0000EF90DF90CF90BF90AF909F908F9008951E
:100C10009D9191938F5F69CF85EEA5CF809124043C
:100C200090912504A0912604B0912704892B8A2B4A
:100C30008B2B09F49ECF0E94510400912404109143
:100C4000250420912604309127046C197D098E0912
:100C50009F09061717072807390708F08ACFC0CF62
:100C600081E0C3CF80E0C1CF82E0BFCF83E0BDCFC2
:100C7000DC0111968D919C91DC01ED91FC9102803B
:100C8000F381E02D41E050E01995019729F481E0CE
:100C90000E94480591E0811190E0892F08950F93FB
:100CA0001F93CF93DF93E1E0F0E02115310511F0C0
:100CB000E2E0F0E0EC01AC81BD81AE17BF0738F196
:100CC000DA018B0189819A81488151E0509328048F
:100CD00040934A041092290410924B04232B41F4B0
:100CE000B801CE01DF91CF911F910F910C9438067E
:100CF0001097B1F3FC0120813181F9012281338108
:100D000041E050E0BD01F9011995019749F380E0F8
:100D1000DF91CF911F910F9108950895E091DB032A
:100D20008091DA03E81730F4F0E0E452FC4F808160
:100D300090E008958FEF9FEF08959091DB038091ED
:100D4000DA032FEF3FEF981748F4E92FF0E0E45271
:100D5000FC4F208130E09F5F9093DB03C901089531
:100D60008091DA039091DB03891B990B0895CF9250
:100D7000DF92EF92FF920F931F93CF93DF937C014B
:100D8000CB018A0120912804222389F0EB016B0119
:100D9000C40ED51ECC15DD0569F06991D701ED9122
:100DA000FC910190F081E02DC7011995F3CF642FDC
:100DB0000E94E204C801DF91CF911F910F91FF9033
:100DC000EF90DF90CF900895CF93DF931F92CDB730
:100DD000DEB76983209128042223F9F020914B0487
:100DE000203258F021E030E0FC013383228390E090
:100DF00080E00F90DF91CF91089580912904E82F32
:100E0000F0E0E65DFB4F998190838F5F809329042A
:100E100080934B0481E090E0ECCF61E0CE0101963D
:100E20000E94E204F7CF90E080E00895CF93DF9333
:100E3000EC018B818823A1F0888191E090932804B4
:100E400080934A041092290410924B0481E00E947E
:100E5000480591E0811190E0892FDF91CF910895AD
:100E60001092DB031092DA031092290410924B04C3
:100E70000E94090581E792E09093CB038093CA0317
:100E800082E792E09093CD038093CC0381E08B8343
:100E9000CE010E941607982F8111CECFDDCFCF92C1
:100EA000DF92EF92FF92CF93DF93EC01603282E00A
:100EB0007807CCF5653B710514F064EB70E089812F
:100EC00028E830E0281B310987FD3395220F331FB6
:100ED000220F331F6901330FEE08FF088A8128E5CE
:100EE00032E0281B310987FD3395220F331F220F73
:100EF000331F032E000C440B550B2C193D094E09D2
:100F00005F09DB0177FF02C0B0E0A0E00E94661F2E
:100F100024EB30E040E050E00E943C1FC20ED31EA4
:100F2000E41EF51EB601E881E03370F5298188E8FA
:100F300090E0821B910927FD9395880F991F880FD8
:100F4000991F681779077CF02A8188E592E0821B57
:100F5000910927FD9395880F991F880F991F68178E
:100F600079070CF4CB010297880F991F4FB7F894BB
:100F70002E2F30E0F901EE0FFF1FE20FF31FE551B6
:100F8000FD4F928381834FBFDF91CF91FF90EF9010
:100F9000DF90CF9008951F93CF93DF93EC01162F2E
:100FA0008881803308F04DC0862F0E9452028881CC
:100FB000282F30E0F901EE0FFF1FE20FF31FE5517C
:100FC000FD4F1F736081607C612B608319821A82E0
:100FD0002CE0622F0E94CE20829FB001112430E0CD
:100FE00020E0AB01420F531FFA01EE0FFF1FE40F89
:100FF000F51FE551FD4F908196FD16C02F5F3F4FC5
:101000002C30310571F7813009F51092800082E0B3
:10101000809381001092850010928400B19A809193
:101020006F00826080936F00E8818E2F90E0FC015A
:10103000EE0FFF1FE80FF91FE551FD4F808180641F
:1010400080838881DF91CF911F910895823061F470
:10105000109290008093910010929500109294004D
:1010600088BB80937100E0CF833069F41092A000B8
:1010700082E08093A1001092A5001092A40089BB89
:1010800080937200D1CF8111CFCF1092200182E0E6
:101090008093210110922501109224018ABB809334
:1010A0007300C2CFAF92BF92CF92DF92EF92FF92C6
:1010B0000F931F93CF93DF936B017A01EC01CA5119
:1010C000DD4F28813CE0389F8001399F100D1124AD
:1010D000A090EA02B12C27FF1FC0FB0111821082F1
:1010E00088818F5F888388819801280F311D87FD53
:1010F0003A95F6012A153B051CF488818C30C4F121
:1011000080819181049680349C4908F473C0F60173
:1011100080819181049670C088819801280F311DCB
:1011200087FD3A952A153B05DCF68881A801480F12
:10113000511D87FD5A95FA01EE0FFF1FE40FF51FB1
:10114000E551FD4F808186FFCBCF8881F801E80F04
:10115000F11D87FDFA95CF01EE0FFF1FE80FF91F74
:10116000E551FD4F808160E08F730E94AE03B8CFE0
:10117000808191812881A801420F511D27FD5A9538
:101180009A01FA01EE0FFF1FE20FF31FE551FD4F29
:1011900021813281820F931FF7019183808388819F
:1011A0009801280F311D87FD3A95F901EE0FFF1FB9
:1011B000E20FF31FE551FD4F808186FF22C0888139
:1011C000080F111D87FD1A95F801EE0FFF1FE00FA4
:1011D000F11FE551FD4F808161E08F73DF91CF9169
:1011E0001F910F91FF90EF90DF90CF90BF90AF9045
:1011F0000C94AE0380E49CE9F701918380838FEF28
:101200008883DF91CF911F910F91FF90EF90DF9036
:10121000CF90BF90AF9008958F929F92AF92BF9260
:10122000CF92DF92EF92FF926B017C0120E030E0E1
:10123000A9010E94181E6AE570E0882309F120E0E8
:1012400030E044EB52E4C701B6010E947E1E4B0120
:101250005C0120E030E0A901C701B6010E94B42082
:1012600020E030E046EB52E4181624F020E030E0B5
:1012700044EB52E4C501B4010E94A01F0E947E20ED
:10128000CB01FF90EF90DF90CF90BF90AF909F90F9
:101290008F9008954F925F926F927F92BF92CF92FC
:1012A000DF92EF92FF920F931F93CF93DF93DC01B6
:1012B0001496ED91FC911597EF2B09F404C1E90107
:1012C000C52EB42E8C01FC01808191E090932804FE
:1012D00080934A041092290410924B04CD010E947D
:1012E0003806D82E882309F4EEC0D80114968D91C3
:1012F0009C9115978C179D0708F4E5C0EC900E940F
:1013000051042B013C0180912204811167C0FC2E05
:1013100081E080932204809321049FEF9093200426
:1013200010921F049C2F915090931E048093FD03F4
:101330008091FD03EE0CE82AE092FD038091FC030E
:10134000813009F09CC01092FC030E9451042B01D3
:101350003C018091FD038093BB0080912404909117
:101360002504A0912604B0912704892B8A2B8B2B6E
:10137000A1F00E9451042091240430912504409151
:1013800026045091270464197509860997092617C0
:1013900037074807590708F442C08091BC0083FD15
:1013A000D8CF85EC8093BC000E9451042B013C01F6
:1013B00080912204813009F464C080911F048F154C
:1013C00010F4F0901F04AEEFB3E0ECEDF3E080E03A
:1013D0008F1551F19D9191938F5FFACF80912404E5
:1013E00090912504A0912604B0912704892B8A2B83
:1013F0008B2B09F488CF0E94510420912404309152
:101400002504409126045091270464197509860922
:101410009709261737074807590708F074CF8091B6
:1014200023040E942705F12C1092DB03F092DA03CB
:10143000FC161D0609F047C0EB2CFC2CCE0DDF1D61
:10144000F80181819281DC01ED91FC910284F385A8
:10145000E02D1995F70181937F01CE17DF0781F702
:101460008D2DDF91CF911F910F91FF90EF90DF9025
:10147000CF90BF907F906F905F904F90089585EED2
:1014800091CF8091240490912504A0912604B091DD
:101490002704892B8A2B8B2B09F48ACF0E945104B5
:1014A0002091240430912504409126045091270472
:1014B00064197509860997092617370748075907D8
:1014C00008F076CFACCFD12CCBCFCF93DF9300D029
:1014D000CDB7DEB78B8322E030E0AE014F5F5F4FC8
:1014E000BE016D5F7F4F80919B0590919C050E948E
:1014F0004A0989819A819827892798270F900F9008
:101500000F90DF91CF9108954F925F926F927F92EB
:101510008F929F92AF92BF92CF92DF92EF92FF9203
:101520001F93CF93DF9300D000D000D01F92CDB790
:10153000DEB78EE28E8314EF1D8321E030E0AE0132
:101540004B5F5F4FBE016A5F7F4F80919B0590911B
:101550009C050E944F0665E070E080E090E00E94EC
:10156000760486EF0E94650A4C01B12CA12C809173
:101570009D058295880F880F807C8C5C8C831B83F3
:1015800021E030E0AE014D5F5F4FBE016C5F7F4FE9
:1015900080919B0590919C050E944F0680919D052E
:1015A00081117DC165E070E080E090E00E947604EA
:1015B00086EF0E94650AB0E0A0E0CC24D82EE92E88
:1015C000FA2E88EF8A8321E030E0AE014F5F5F4F53
:1015D000BE016E5F7F4F80919B0590919C050E949C
:1015E0004A098981C82A10919D058091B205909180
:1015F000B305A5019401281B390B41095109A0919C
:10160000B005B091B1050E945B1F2B013C01AFE01A
:101610007594679457944794AA95D1F76091AA0559
:101620007091AB05072E000C880B990BBBE0660F81
:10163000771F881F991FBA95D1F72091AC0530917B
:10164000AD05032E000C440B550B240D351D461D16
:10165000571D0E943C1F420E531E641E751E20EA39
:10166000421A2FE0520A61087108A3019201C301D6
:10167000B2010E94BE204B015C018CE0B594A7949E
:10168000979487948A95D1F7A091A205B091A3056C
:101690000E94661F9B01AC019DE0559547953795CB
:1016A00027959A95D1F72F83388749875A87A09134
:1016B000A405B091A505A50194010E94661F9C0197
:1016C000552737FD5095452F8F819885A985BA8577
:1016D000280F391F4A1F5B1F2E5F3F4F4F4F5F4F31
:1016E00062E055954795379527956A95D1F730581B
:1016F0004F4F5F4FA091AE05B091AF050E945B1FA9
:101700009B01AC017FE056954795379527957A95D3
:10171000D1F72F83388749875A8788E090E0811B6B
:10172000910904C0F694E794D794C7948A95D2F7A8
:10173000A091A605B091A705A50194010E94661F7E
:101740004B015C01EBE0B594A79497948794EA95DC
:10175000D1F7A091A005B091A105A30192010E942B
:10176000661FFBE09595879577956795FA95D1F774
:10177000680D791D8A1D9B1D80909E0590909F0588
:10178000092C000CAA08BB08A2E0880C991CAA1C12
:10179000BB1CAA95D1F7680D791D8A1D9B1D012ED2
:1017A00004C0660F771F881F991F0A94D2F76E5FD7
:1017B0007F4F8F4F9F4F24E030E040E050E00E9489
:1017C0003C1FD701C601821B930BA40BB50B9C01D8
:1017D000AD0160E573EC80E090E004C096958795DC
:1017E000779567951A95D2F70E94BE2097FD6AC03B
:1017F000660F771F881F991F2F81388549855A8565
:101800000E946E1F69017A019927F7FC9A958F2D26
:101810007E2D6D2D9B01AC010E94BE209B01AC0171
:10182000AEEDBBE00E945B1F4B015C01A3E4B3EE95
:10183000A70196010E94691FBC01992777FD909529
:10184000892F4501BB2497FCB094AB2C680D791D02
:101850008A1D9B1D6153714F8F4F9F4F44E095959B
:101860008795779567954A95D1F76C0D7D1D8E1DEF
:101870009F1D2A960FB6F894DEBF0FBECDBFDF9135
:10188000CF911F91FF90EF90DF90CF90BF90AF90DE
:101890009F908F907F906F905F904F9008958130D0
:1018A00029F468E070E080E090E080CE823029F496
:1018B0006EE070E080E090E079CE6AE170E080E078
:1018C00090E074CE2F81388549855A850E946E1F1D
:1018D00069017A01CC0CDD1CEE1CFF1C95CFFC01CC
:1018E00001900020E9F73197AF01481B590BBC016B
:1018F00089EE94E00C9474028F929F92AF92BF9203
:101900000F931F93CF93DF93CDB7DEB7A1970FB699
:10191000F894DEBF0FBECDBF19A2423008F44AE0F2
:101920008E010F5D1F4F842E912CB12CA12CA5018F
:1019300094010E946E1FE62FB901CA01EA30F4F447
:10194000E05DD801EE938D01232B242B252B79F715
:1019500090E080E0109719F0CD010E946F0CA196E5
:101960000FB6F894DEBF0FBECDBFDF91CF911F91B0
:101970000F91BF90AF909F908F900895E95CE1CF59
:10198000CF92DF92EF92FF92CF93DF9397FF1BC02E
:101990006B017C016DE289EE94E00E941403EC017E
:1019A00066277727CB016C197D098E099F094AE0CC
:1019B0000E947C0C8C0F9D1FDF91CF91FF90EF90C8
:1019C000DF90CF9008954AE0DF91CF91FF90EF90A4
:1019D000DF90CF900C947C0C0C946F0CCF93DF9322
:1019E0000E946F0CEC018AE292E00E946F0C8C0F57
:1019F0009D1FDF91CF9108954F925F926F927F92DA
:101A00008F929F92AF92BF92CF92DF92EF92FF920E
:101A10000F931F93CF936B017C01742EAC019B013C
:101A20000E94B920882399F08DE292E0CF911F9116
:101A30000F91FF90EF90DF90CF90BF90AF909F906D
:101A40008F907F906F905F904F900C946F0C460139
:101A50005701E894B7F82FEF3FEF4FE75FE7C50175
:101A6000B4010E94B92081110DC02FEF3FEF4FE765
:101A70005FE7C501B4010E94181E18161CF481E32B
:101A800092E0D4CF2FEF3FEF4FE75FE4C701B601FD
:101A90000E94B42018161CF485E392E0C7CF2FEF04
:101AA0003FEF4FE75FECC701B6010E94181E87FDAC
:101AB000F3CF20E030E0A901C701B6010E94181E53
:101AC00010E000E087FF0AC06DE289EE94E00E941A
:101AD00014038C01F7FAF094F7F8F094C0E060E09A
:101AE00070E080E09FE37C1641F020E030E040E2CF
:101AF00051E40E940C20CF5FF6CFA70196010E940F
:101B0000A01F2B013C010E9485204B015C014AE093
:101B10000E947C0C7C01E00EF11ECC23C1F1C501BA
:101B2000B4010E941D1E9B01AC01C301B2010E94C1
:101B30009F1F4B015C016EE289EE94E00E9414034A
:101B4000E80EF91EC15018F120E030E040E251E407
:101B5000C501B4010E947E1E2B013C010E9485201C
:101B60004B01B12CA12C4AE0C501B4010E947C0CB0
:101B7000E80EF91EC501B4010E941D1E9B01AC01B7
:101B8000C301B2010E949F1F4B015C01DBCFC70163
:101B9000CF911F910F91FF90EF90DF90CF90BF906A
:101BA000AF909F908F907F906F905F904F9008952F
:101BB000CF93DF930E94FC0CEC018AE292E00E943A
:101BC0006F0C8C0F9D1FDF91CF910895EF92FF92C4
:101BD0000F931F93CF93DF937C018B01EA01BC012C
:101BE00088E995E00E944F07B80185E995E00E94D9
:101BF0004F07BE0182E995E00E944F0789E392E01A
:101C00000E94EC0CB701FF0C880B990B0E94C00CD2
:101C100084E492E00E94EC0CB801110F880B990B40
:101C20000E94C00C84E492E00E94EC0CBE01DD0F27
:101C3000880B990B0E94C00C8AE292E0DF91CF9151
:101C40001F910F91FF90EF900C946F0C0F931F93C7
:101C5000CF93DF938C01EC018F3F910519F014F0C5
:101C6000CFEFD0E0D7FF02C0D0E0C0E089E00E9413
:101C7000520210161106F4F060E089E00E94AE03F3
:101C800060E088E00E94AE0386E492E00E94EC0CE3
:101C900081E592E00E94EC0CBE01DD0F880B990BF0
:101CA0000E94C00C8AE292E0DF91CF911F910F91C8
:101CB0000C946F0C0F3F110514F061E0DECFEFEED6
:101CC000F2E0E491E150E23108F0B0C0F0E08827A2
:101CD000E359F14F8F4F0C94DA207F0E840E890E5A
:101CE000930E9D0E160FA70EAF0EB70EC10ECB0EA4
:101CF000D50EE40EEE0E160FF80E020F0C0F84B583
:101D0000806884BDC7BDBCCF84B5806284BDC8BDBA
:101D1000B7CF80918000806880938000D093890045
:101D2000C0938800ADCF8091800080628093800056
:101D3000D0938B00C0938A00A3CF809180008860ED
:101D400080938000D0938D00C0938C0099CF8091B8
:101D5000B00080688093B000C093B30091CF8091B1
:101D6000B00080628093B000C093B40089CF8091AE
:101D70009000806880939000D0939900C093980061
:101D80007FCF80919000806280939000D0939B00E1
:101D9000C0939A0075CF80919000886080939000E6
:101DA000D0939D00C0939C006BCF8091A000806871
:101DB0008093A0008091A0008F7B8093A000D0939F
:101DC000A900C093A8005CCF8091A000806280939E
:101DD000A000D093AB00C093AA0052CF8091A00086
:101DE00088608093A000D093AD00C093AC0048CF32
:101DF00080912001806880932001D0932901C093B5
:101E000028013ECF80912001806280932001D093F1
:101E10002B01C0932A0134CF8091200188608093E8
:101E20002001D0932D01C0932C012ACF0038110539
:101E30000CF043CF21CF2F923F924F925F926F923F
:101E40007F928F929F92AF92BF92CF92DF92EF924A
:101E5000FF920F931F93CF93DF93D82FC92F8B013E
:101E60000E948B1B24E630E040E050E00E946E1F91
:101E700049019B01AC0160E876E988E990E00E94A5
:101E8000BE206B017C01F80191828082ED2FFC2F36
:101E90002191822F022E000C990BC0970A97C0F354
:101EA0002E3239F51F0180E8882E86E9982E88E9C0
:101EB000A82EB12C9AE0492E512C612C712CF101E5
:101EC000C1911F010C2E000CDD0BE097CA30D1052B
:101ED00080F4C501B401A30192010E946E1F490163
:101EE0005A01DE010E94661FC60ED71EE81EF91EAB
:101EF000E6CFA5E0B0E0A70196010E945B1F6F5FEF
:101F00007F4F8F4F9F4F23E030E040E050E00E9432
:101F10006E1FF80122833383448355831682DF9139
:101F2000CF911F910F91FF90EF90DF90CF90BF90D6
:101F3000AF909F908F907F906F905F904F903F9069
:101F40002F9008951F93CF93DF93EC0118811D32DA
:101F500009F42196CE010E948B1B9B01AC01A4E6E3
:101F6000B0E00E945B1FAB01BC01FE012991822FF2
:101F7000022E000C990BC0970A97B8F32E3231F558
:101F80008181082E000C990BC0978A309105F0F4DE
:101F9000AAE0A89F9001A99F300D1124C901330F19
:101FA000AA0BBB0B480F591F6A1F7B1F8281082E8B
:101FB000000C990BC0978A30910540F4092E000C53
:101FC000AA0BBB0B480F591F6A1F7B1F1D3239F428
:101FD00070956095509541955F4F6F4F7F4FCB0146
:101FE000BA01DF91CF911F9108950F931F93CF9363
:101FF000DF938C01EB01FC01808191810097E1F07E
:102000006881798161157105A9F0428153812C8124
:102010003D814217530770F00E94FA228C819D8106
:10202000F801958384831D821C82DF91CF911F91DB
:102030000F9108950E947E2188819981F8019183F2
:1020400080838A819B81938382838C819D81958308
:102050008483198218821B821A82E5CFCF93DF9383
:10206000EC0188819981009711F00E947E211982EC
:1020700018821D821C821B821A82DF91CF910895E3
:10208000FC0180819181009711F00C947E210895CC
:102090000F931F93CF93DF93EC0188819981009771
:1020A00059F02A813B812617370730F081E0DF9114
:1020B000CF911F910F9108958B016F5F7F4F0E9409
:1020C0000722009759F0998388831B830A832C8108
:1020D0003D81232B59F7FC011082E8CF80E0E7CF48
:1020E000CF92DF92EF92FF920F931F93CF93DF93E4
:1020F000CDB7DEB7A1970FB6F894DEBF0FBECDBF48
:102100007C01CB01BA01F701118210821382128285
:10211000158214828E010F5F1F4F26E048E00E9457
:102120006D1B6C01009771F0FC0101900020E9F734
:1021300031978F01081B190BB801C7010E94481085
:10214000811112C0C7010E942E10A1960FB6F894FB
:10215000DEBF0FBECDBFDF91CF911F910F91FF90DA
:10216000EF90DF90CF900895F70115830483B601B7
:10217000808191810E94FA22E8CF85ED8093BC0096
:102180008091240490912504A0912604B091270405
:102190000796A11DB11D23E0B695A7959795879544
:1021A0002A95D1F72091BC0024FD03C0109222048F
:1021B0000895409124045091250460912604709163
:1021C0002704452B462B472B69F30097A105B10542
:1021D00041F025E32A95F1F700000197A109B10923
:1021E000E1CF809123040C9427051F920F920FB624
:1021F0000F9211240BB60F922F933F934F935F933F
:102200006F937F938F939F93AF93BF93EF93FF93BE
:102210008CE494E00E94F202FF91EF91BF91AF91A4
:102220009F918F917F916F915F914F913F912F91EE
:102230000F900BBE0F900FBE0F901F9018951F921E
:102240000F920FB60F9211240BB60F922F938F930C
:102250009F93EF93FF93E0915C04F0915D04808184
:10226000E0916204F091630482FD1DC09081809131
:1022700065048F5F8F7320916604821741F0E091AF
:102280006504F0E0E45BFB4F958F80936504FF915C
:10229000EF919F918F912F910F900BBE0F900FBEDA
:1022A0000F901F9018958081F2CF1F920F920FB65A
:1022B0000F9211240BB60F922F933F934F935F937E
:1022C0006F937F938F939F93AF93BF93EF93FF93FE
:1022D00089EE94E00E94F202FF91EF91BF91AF91DD
:1022E0009F918F917F916F915F914F913F912F912E
:1022F0000F900BBE0F900FBE0F901F9018951F925E
:102300000F920FB60F9211240BB60F922F938F934B
:102310009F93EF93FF93E091F904F091FA04808189
:10232000E091FF04F091000582FD1DC09081809135
:1023300002058F5F8F7320910305821741F0E091B2
:102340000205F0E0E751FB4F958F80930205FF9166
:10235000EF919F918F912F910F900BBE0F900FBE19
:102360000F901F9018958081F2CF1F920F920FB699
:102370000F9211242F933F938F939F93AF93BF930B
:102380008091C2039091C303A091C403B091C5038F
:102390003091C10323E0230F2D3758F50196A11D7D
:1023A000B11D2093C1038093C2039093C303A093F4
:1023B000C403B093C5038091C6039091C703A09155
:1023C000C803B091C9030196A11DB11D8093C60336
:1023D0009093C703A093C803B093C903BF91AF9173
:1023E0009F918F913F912F910F900FBE0F901F9053
:1023F000189526E8230F0296A11DB11DD2CF1F927A
:102400000F920FB60F9211240F900FBE0F901F90D6
:1024100018951F920F920FB60F9211240BB60F92C0
:102420002F933F934F935F936F937F938F939F93DC
:10243000AF93BF93EF93FF938091B900887F80366D
:1024400009F44DC008F040C0883209F4A9C028F54D
:10245000803109F49DC0C8F4882309F4FBC088309A
:1024600009F496C0FF91EF91BF91AF919F918F9129
:102470007F916F915F914F913F912F910F900BBE84
:102480000F900FBE0F901F901895883109F488C0E7
:10249000803241F78093200414C0803409F49DC039
:1024A00040F48033B9F38833E9F68093200485EC57
:1024B000B0C0803509F485C0883509F496C08834E9
:1024C00089F60E94BD10CECF883909F48CC038F54A
:1024D000883729F050F4883611F0803719F683E0F8
:1024E000809322041092BE0357C0883809F47BC041
:1024F000803919F0803809F0B5CF8091BE03803261
:1025000008F071C0E091BE0381E08E0F8093BE039E
:102510008091BB00F0E0E256FC4F80833DC0803BE1
:1025200039F0E0F4803A09F479C0883A09F09ACF9A
:1025300084E08093220410929D0310929C03E0910A
:10254000CA03F091CB03199580919C0381110FC0B0
:1025500081E080939C0310927C0309C0803C09F4C5
:10256000A6CF883C09F4A3CF883B09F07BCFE0914C
:102570009D0381E08E0F80939D03F0E0E458FC4FB3
:1025800080818093BB0090919D0380919C0329C022
:102590008091FD038093BB0085EC8093BC0062CFEB
:1025A00090911F0480911E04981758F5E0911F0424
:1025B00081E08E0F80931F04F0E0E250FC4F808199
:1025C000E9CFE0911F0481E08E0F80931F0480917A
:1025D000BB00F0E0E250FC4F808390911F0480919B
:1025E0001E049817C8F285E8D8CFE0911F0481E057
:1025F0008E0F80931F048091BB00F0E0E250FC4FEF
:1026000080838091210481115CCF81E08093FC0361
:1026100084EA8093BC001092220424CF85EC80933E
:10262000BC00109222048091BE03803230F4E0910D
:10263000BE03F0E0E256FC4F10826091BE0370E0F2
:10264000E091CC03F091CD038EE993E019951092BF
:10265000BE0308CF1092200434CF1F920F920FB602
:102660000F9211240BB60F922F933F934F935F93CA
:102670006F937F938F939F93AF93BF93EF93FF934A
:1026800048E251E064E271E090E080E00E9452088C
:10269000FF91EF91BF91AF919F918F917F916F913A
:1026A0005F914F913F912F910F900BBE0F900FBEF6
:1026B0000F901F9018951F920F920FB60F92112432
:1026C0000BB60F922F933F934F935F936F937F932C
:1026D0008F939F93AF93BF93EF93FF9348EA50E09C
:1026E00064EA70E083E090E00E945208FF91EF916D
:1026F000BF91AF919F918F917F916F915F914F911A
:102700003F912F910F900BBE0F900FBE0F901F9017
:1027100018951F920F920FB60F9211240BB60F92BD
:102720002F933F934F935F936F937F938F939F93D9
:10273000AF93BF93EF93FF9348E950E064E970E0F3
:1027400082E090E00E945208FF91EF91BF91AF911B
:102750009F918F917F916F915F914F913F912F91B9
:102760000F900BBE0F900FBE0F901F9018951F92E9
:102770000F920FB60F9211240BB60F922F933F9327
:102780004F935F936F937F938F939F93AF93BF9379
:10279000EF93FF9348E850E064E870E081E090E058
:1027A0000E945208FF91EF91BF91AF919F918F913D
:1027B0007F916F915F914F913F912F910F900BBE41
:1027C0000F900FBE0F901F901895FC019091EA0298
:1027D000903398F481E0890F8093EA029083892FE7
:1027E00090E0FC01EE0FFF1FE80FF91FE551FD4FD0
:1027F00088EB9BE09283818308958FEF8083089517
:10280000CF93DF93EC01198218821B821A821D82FA
:102810001C8270E060E00E944810811105C0CE016A
:10282000DF91CF910C942E101D821C826CE272E01D
:1028300088819981DF91CF910C94FA22ECE4F4E045
:102840001382128288EE93E0A0E0B0E08483958347
:10285000A683B7832AE032E03183208345ED50E040
:102860005587448744ED50E05787468740ED50E058
:10287000518B408B41ED50E0538B428B42ED50E049
:10288000558B448B46ED50E0578B468B118E128E44
:10289000138E148EE9EEF4E0138212828483958302
:1028A000A683B7833183208325EC30E035872487E6
:1028B00024EC30E03787268720EC30E0318B208B0A
:1028C00021EC30E0338B228B22EC30E0358B248BF3
:1028D00026EC30E0378B268B118E128E138E148EE1
:1028E000E6E8F5E01382128284839583A683B7839A
:1028F0008CE192E09183808387E696E00E94001449
:1029000081E696E00E940014E4EBF5E0108211826B
:102910001382128214821582168217821086128602
:10292000118613861486158616861786118A108AD4
:10293000128A138A148A158A168A108E178A118EA3
:10294000128E138E148E158E12A213A214A215A22B
:1029500016A217A210AA11AA12AA13AA14AA15AA9B
:1029600016AE17AE1092F8051092F9051092FA05FE
:102970001092FB05109200061092010610920606B6
:1029800010920706109208061092090610920E0681
:1029900010920F0610921406109215061092160649
:1029A0001092170610921C0610921D061092220615
:1029B00010922306109224061092250610922A06E1
:1029C00010922B06109230061092310610923206A9
:1029D00010923306109238061092390682E08093E6
:1029E000490610924A0610924B0610924C0610921D
:1029F0004E0610924D061092500610924F061092FD
:102A000051061092520610925306109254061092DC
:102A100055061092560610925706109258061092BC
:102A2000590610925A0610925B0610925C0610929C
:102A30005D0610925E0610925F061092600610927C
:102A40003A0610929C0510929B0588E995E00E9439
:102A5000E51385E995E00E94E51382E995E00C9481
:102A6000E513CF93DF9300D000D01F92CDB7DEB730
:102A7000789484B5826084BD84B5816084BD85B559
:102A8000826085BD85B5816085BD80916E00816065
:102A900080936E001092810080918100826080930B
:102AA000810080918100816080938100809180000D
:102AB0008160809380008091B10084608093B10038
:102AC0008091B00081608093B0008091910082601D
:102AD000809391008091910081608093910080911A
:102AE00090008160809390008091A100826080932B
:102AF000A1008091A10081608093A1008091A0003D
:102B000081608093A00080912101826080932101E7
:102B10008091210181608093210180912001816059
:102B20008093200180917A00846080937A00809164
:102B30007A00826080937A0080917A00816080932D
:102B40007A0080917A00806880937A001092C100A8
:102B500089EE94E00E942B028CE494E00E942B0208
:102B600069E170E088E995E00E94CB0768E170E0D8
:102B700085E995E00E94CB0767E170E082E995E086
:102B80000E94CB074AE550E06AE570E08AE590E0F4
:102B90000E94E60D89E00E94520288E00E945202E3
:102BA00082E390E00E94260E83E080939D05809151
:102BB0009B0590919C05009711F00E947E2186E074
:102BC00090E00E94E2208C0187E7F801808386E88C
:102BD00095E092838183138280E290E095838483E1
:102BE00010939C0500939B051092DB031092DA036F
:102BF0001092290410924B040E94090581E792E08B
:102C00009093CB038093CA0382E792E09093CD0325
:102C10008093CC0381E0F8018383C8010E941607EA
:102C2000882309F461C080ED8F8321E030E0AE019C
:102C30004F5F5F4FBE01695F7F4F80919B05909111
:102C40009C050E944A098981853509F04DC08AEAB0
:102C50000E94650A90939F0580939E058CEA0E94CE
:102C6000650A9093A1058093A0058EEA0E94650AEB
:102C70009093A3058093A20580EB0E94650A909330
:102C8000AF058093AE0582EB0E94650A9093B10573
:102C90008093B00584EB0E94650A9093B3058093FE
:102CA000B20586EB0E94650A9093A5058093A40562
:102CB00088EB0E94650A9093A7058093A6058AEB8E
:102CC0000E94650A9093A9058093A8058CEB0E9449
:102CD000650A9093AB058093AA058EEB0E94650A66
:102CE0009093AD058093AC058AE592E00E94EE0CCE
:102CF000EE24E39482E0D82EFF24F39498E9492E41
:102D00009AE3592E612C712C80916B0690916C0680
:102D1000892BA1F0E0916706F091680680818823F5
:102D200069F08091650690916606892B39F0E091F3
:102D30006106F091620680818111C6C28CE494E044
:102D40000E94D202181619060CF0CDC38CE494E050
:102D50000E94B002B82E8091510690915206A09127
:102D60005306B09154060196A11DB11D80935106E2
:102D700090935206A0935306B0935406F4E2BF1604
:102D800009F47CC2E0914B06FB150CF4BEC02AE0AE
:102D9000B21619F08DE0B8127EC2EF3008F033C1E0
:102DA000F0E0E65CF94F1082A0903906AA2009F401
:102DB0002CC120913A06822F022E000C990B3FEB7A
:102DC000320F363008F0AEC0C7978295807F909161
:102DD0003B06292F092E000C330B4FEB490F4630D1
:102DE00008F0A8C027533109820F90913806891343
:102DF000F7C080915D0690915E06A0915F06B0914C
:102E000060060196A11DB11D80935D0690935E063C
:102E1000A0935F06B093600680914C06882399F0DA
:102E20008091550690915606A0915706B09158068C
:102E30000196A11DB11D8093550690935606A0934F
:102E40005706B093580610914906112309F47BC028
:102E50001130A1F586ED95E00E94CB0484EE95E05B
:102E60000E94CB0480914C06882341F187E0E4EC7A
:102E7000F5E0A6EBB5E001900D928A95E1F787E0C9
:102E8000EBECF5E0ADEBB5E001900D928A95E1F742
:102E90000E94A8046093D2057093D3058093D40553
:102EA0009093D5051093B5051093B40582EF95E086
:102EB0000E94B40480E096E00E94B40400914F06A2
:102EC000109150060115110509F417C3E0914F0642
:102ED000F091500666A177A1F80186A197A10E9402
:102EE000F122892B09F009C3B801C80140960E945C
:102EF000FA220E94A804F80160A371A382A393A3FD
:102F0000E5A2E4A202A513A5DDCF9AE2B91609F461
:102F100044CFFCE2BF12BFC1809138068B2580935D
:102F200038063BCF2156263018F4875591094DCFEE
:102F3000C0974BCF9156963018F42755310954CF8E
:102F40002053310951CF84EE95E00E94CB0480914B
:102F50004C06882321F187E0E4ECF5E0A6EBB5E030
:102F600001900D928A95E1F787E0EBECF5E0ADEB8F
:102F7000B5E001900D928A95E1F70E94A804609354
:102F8000D2057093D3058093D4059093D505F09224
:102F9000B505F092B4058EE096E00E94B4048091ED
:102FA000260690912706A0912806B09129068093C5
:102FB000220690932306A0932406B09325060E9430
:102FC000A80460931E0670931F06809320069093BA
:102FD0002106F0921D06F0921C068AE296E06CCF64
:102FE0008091590690915A06A0915B06B0915C06BB
:102FF0000196A11DB11D8093590690935A06A09386
:103000005B06B0935C06A12C78C280914A068111C0
:1030100044C063E672E08AE396E00E94F122892BC5
:1030200041F069E672E08AE396E00E94F122892B82
:10303000F1F4F092490680914D0690914E069093DE
:10304000500680934F0600914F06109150060115CF
:103050001105C9F26AE376E0F80186A197A10E9402
:10306000F12297FF43C2F80182A593A5E8CF6FE64E
:1030700072E08AE396E00E94F122892B41F065E735
:1030800072E08AE396E00E94F122892B19F41092F3
:103090004906D1CFD0924906CECFE0914906E23021
:1030A00009F44AC090913A06992309F445C020E2F8
:1030B000E29FF0011124E82B3197E932F10508F085
:1030C0003BC08827E959F74E8F4F0C94DA209018AF
:1030D000D118D818DF18E218101917192419311946
:1030E0009C189C189C189C189C189C189C189C1840
:1030F0009C189C189C189C189C189C189C189C1830
:103100009C189C189C189C189C189C189C1890182B
:10311000CB18D118D818DF18E218E918F6180319D7
:103120008AE396E00E94A20F6093EA057093EB0594
:103130008093EC059093ED0500914F061091500699
:10314000A0904A060115110509F45DCFE0914F06E4
:10315000F091500666A177A1F80186A197A10E947F
:10316000F122892B09F04FCFF80120A531A58A2D36
:1031700090E0821793070CF446CF2817390739F4EB
:1031800040E150E06AE376E0C8010E940123F801C3
:1031900002A513A5D5CF81E0913409F445C080E0A4
:1031A00043C064EC75E08AE396E00E941B0FC4CF35
:1031B00081E0933509F080E08093CA05BDCF6BECC8
:1031C00075E0F1CF81E0973509F080E08093D1057B
:1031D000B3CF8AE396E00E94A20F6093FC05709340
:1031E000FD058093FE059093FF05A6CF8AE396E048
:1031F0000E94A20F60930A0670930B0680930C0640
:1032000090930D0699CF8AE396E00E948B1B609302
:10321000DC057093DD058093DE059093DF058CCF90
:1032200081E091330CF4BBCF80934C0685CF8AE3C9
:1032300096E00E948B1B609326067093270680936E
:1032400028069093290678CF8AE396E00E94A20F81
:103250006093340670933506809336069093370654
:103260006BCF8AE396E00E94A20F609318067093DA
:10327000190680931A0690931B065ECF10924B0698
:1032800010924A0610923806D092490610923906DA
:1032900010924C0653CDEE3040F481E08E0F8093B7
:1032A0004B06F0E0E65CF94FB0828091390681115F
:1032B00045CD80913806B826B09238063FCD82EAD7
:1032C00092E00E94EE0C3ACD8BE792E00E94EC0C6B
:1032D00086E892E00E94EC0C40916B0650916C06DF
:1032E000609167067091680689EE94E00E9474020E
:1032F0008AE292E00E946F0C8BE792E00E94EC0C55
:1033000084E992E00E94EC0C4091650650916606BB
:10331000609161067091620689EE94E00E947402E9
:103320008AE292E00E946F0C88E30E943A04BC019A
:10333000990F880B990B0E941F1E9B01AC010E94E4
:10334000A01F20E030E040E85AE30E947E1E20E00B
:1033500030E040E85FE30E949F1F6093D6037093C4
:10336000D7038093D8039093D90387E30E943A044C
:10337000BC01990F880B990B0E941F1E9B01AC0189
:103380000E94A01F20E030E040E85AE30E947E1E29
:1033900020E030E040E85FE30E949F1F6093D2038B
:1033A0007093D3038093D4039093D50386E30E9454
:1033B0003A04BC01990F880B990B0E941F1E9B01B8
:1033C000AC010E94A01F20E030E040E85AE30E94D8
:1033D0007E1E20E030E040E85FE30E949F1F609384
:1033E000CE037093CF038093D0039093D10384EBEB
:1033F00092E00E94EC0C6091D6037091D70380910B
:10340000D8039091D90342E00E94FC0C81EC92E039
:103410000E94EC0C6091D2037091D3038091D4038D
:103420009091D50342E00E94FC0C85EC92E00E9452
:10343000EC0C6091CE037091CF038091D0039091FA
:10344000D10342E050E00E94D80D6091D603709104
:10345000D7038091D8039091D9030E940C098C0165
:103460006091D2037091D3038091D4039091D503DE
:103470000E940C095C016091CE037091CF03809192
:10348000D0039091D1030E940C09AC01B501C80191
:103490000E94E60D89EC92E00E94EC0C0E94840AE6
:1034A0000E94C00C82EE92E00E94EE0C0E94840A00
:1034B0009B01AC012058384341405109AFEFB0E0C7
:1034C0000E945B1FA30192010E943C1FC9010E9440
:1034D000260E8AE292E00E946F0C64EF71E080E0B9
:1034E00090E00E9476040E9481030ECC892B09F49F
:1034F0008ACD1092500610924F0680914A068F5F37
:1035000080934A0610924B0681E0FAE2BF1280E0F7
:1035100080933906AA2009F411CC8091B405882340
:1035200009F4CDCE8BE792E00E94EC0C86E892E0A5
:103530000E94EC0C1092B5056091B8057091B90528
:103540008091BA059091BB050E941D1E28E23BE6C2
:103550004EE65EE40E940C204B015C016091B605D2
:103560007091B70590E080E00E941D1E9B01AC01A8
:10357000C501B4010E94A01F2091BC0521119058E3
:1035800046E050E00E94D80D8BE792E00E94EC0CE0
:1035900084E992E00E94EC0C1092B5056091BF05A1
:1035A0007091C0058091C1059091C2050E941D1EB9
:1035B00028E23BE64EE65EE40E940C204B015C01F3
:1035C0006091BD057091BE0590E080E00E941D1ED7
:1035D0009B01AC01C501B4010E94A01F2091C3054D
:1035E0002111905846E050E00E94D80D1092B50588
:1035F0006091B8057091B9058091BA059091BB05AD
:103600000E941D1E28E23BE64EE65EE40E940C206E
:103610004B015C016091B6057091B70590E080E0C8
:103620000E941D1E9B01AC01C501B4010E94A01F98
:10363000AB01BC018091BC0581117058CE0101968F
:103640000E947010BE016F5F7F4F87E696E00E9478
:10365000F50FCE0101960E9440101092B5056091C1
:10366000BF057091C0058091C1059091C2050E946F
:103670001D1E28E23BE64EE65EE40E940C204B0154
:103680005C016091BD057091BE0590E080E00E94F4
:103690001D1E9B01AC01C501B4010E94A01FAB011E
:1036A000BC018091C30581117058CE0101960E9422
:1036B0007010BE016F5F7F4F81E696E00E94F50FAC
:1036C000CE0101960E94401039CB81E696E00E941F
:1036D000401087E696E00C944010EF920F931F93F2
:1036E000CF93DF93E80134E047FD34E1042E000C72
:1036F000550B57FF03C0519541955109E32E022FF9
:10370000242FAE010E94C71BCE01DF91CF911F91E4
:103710000F91EF9008951F93FC0199278827BC0112
:10372000E89411911032E9F3193010F01E30C8F30B
:103730001B3251F01D3249F4689406C00E94B21B3E
:10374000610F711D811D911D119110531A30B0F33D
:103750003EF490958095709561957F4F8F4F9F4F68
:103760001F910895592F482F372F262F660F771F47
:10377000881F991F660F771F881F991F620F731F7D
:10378000841F951F660F771F881F991F08958F92BA
:103790009F92AF92BF92CF92DF92EF92FF920F93E0
:1037A0001F93CF93DF9300D000D000D0CDB7DEB70A
:1037B0006A01F22EB02E102FFBE3AF2EA01608F4F4
:1037C0001BE31F5F012F27E0AE014F5F5F4F0E9499
:1037D000401DBC018981982F9970913009F44EC029
:1037E0009BE2E1FC04C09E2D9170E0FC49C05E2D7F
:1037F0005071E82FE87083FF55C084E0911101C03B
:1038000083E0EF2DE81B8F1508F0E0E0D6018E2F46
:1038100020E25523C9F1992329F0D6019C93C601D2
:1038200001966C0196012D5F3F4FE2FE33C08EE49E
:10383000D6018C9391E411969C93119712968C93D8
:10384000D9018E2F90E281112AC0E20FF32FF11DD2
:1038500010828EEF9FEF29960FB6F894DEBF0FBE51
:10386000CDBFDF91CF911F910F91FF90EF90DF902F
:10387000CF90BF90AF909F908F9008959DE2B7CF6B
:1038800090E2B5CF2D9381508111FCCFCE0ED11C8B
:10389000E0E0C1CF8EE6D6018C9391E6CCCF9D932C
:1038A0008150D1CF482F447082FF3DC084E09111F8
:1038B00001C083E08F1510F4EF2DE81BD6018E2F89
:1038C00020E2552309F1992329F0D6019C93C601E2
:1038D00001966C0196012D5F3F4FE2FE1BC089E40B
:1038E000D6018C938EE411968C93119786E41296F0
:1038F0008C93D9018E2F90E2882309F4A6CF9D9353
:103900008150FACF2D9381508111FCCFCE0ED11C66
:10391000E0E0D9CF89E6D6018C938EE611968C93A0
:10392000119786E6E4CF9B0177FF02C030E020E0EC
:10393000A1E0B0E0911102C0B0E0A0E0F901319641
:10394000AE0FBF1F8B2C912CBB2009F461C054011A
:10395000EFEFAE1ABE0AAA0DBB1DFA161B0619F030
:1039600014F04F2D4A1B511188C0E3FC59C0760159
:10397000A42FB0E2A1114FC0C40ED11C992309F4A9
:103980005BC040E0D6011196F60190836D0155238E
:1039900009F448C0012F060F9A81582F507184FFF7
:1039A00003C0913309F4015010160CF047C00930E0
:1039B00008F008E0EEE2FE2E5B01A01AB1088501D6
:1039C0009194819491082F3F320729F4D601FC92FB
:1039D000F60131966F016217730794F1021713070E
:1039E0007CF5DB01A21BB30BAA24A394B12CAC0E73
:1039F000BD1EAA0DBB1D11968C9121503109D60117
:103A0000119628153905F4F0F60180836D01DBCF9E
:103A1000B12CA12CA0CFF701B1937F01A150AACF67
:103A20009111B0CFD601942F50E302C05D93915015
:103A30009111FCCFC40ED11C40E0ACCF01E0BACF55
:103A400080E3DBCF6217730731F4963388F4953344
:103A500011F4552369F0F6018083FD01842F90E273
:103A6000811108C0A40FB11D1C9290E080E0F3CE3C
:103A700081E3F1CF91938150F3CF911183CF8ACF1E
:103A8000283008F027E03327DA01990F311D87FD30
:103A9000916000966105710539F432602E5F3D93A7
:103AA00030E32A95E1F708959F3F30F080387105A3
:103AB000610509F03C5F3C5F3D93913008F0806800
:103AC000911DDF93CF931F930F93FF92EF92192FC6
:103AD000987F9695E92F96959695E90FFF27EA5BD3
:103AE000FD4F99273327EE24FF24A701E701059016
:103AF0000894079428F4360FE71EF81E491F511D3D
:103B0000660F771F881F991F0694A1F705900794E9
:103B100028F4E70EF81E491F561FC11D770F881F96
:103B2000991F661F0694A1F70590079428F4F80ED4
:103B3000491F561FC71FD11D880F991F661F771F6A
:103B40000694A1F70590079420F4490F561FC71F4C
:103B5000D81F990F661F771F881F0694A9F78491B5
:103B60001095177041F0D695C79557954795F794DE
:103B7000E7941A95C1F7ECEEF1E068941590159171
:103B800035916591959105907FE27395E118F10A61
:103B9000430B560BC90BD009C0F7E10CF11E431FB4
:103BA000561FC91FD01D7EF4703311F48A95E6CFDD
:103BB000E894015030F0080F0AF40027021708F4C7
:103BC000202F2395022F7A3328F079E37D932A95CD
:103BD000E9F710C07D932A9589F606949795679525
:103BE000379517951794E118F10A430B560BC90B3B
:103BF000D00998F023957E9173957A3308F070E39D
:103C00007C932013B8F77E9170617D9330F083959B
:103C100071E37D9370E32A95E1F71124EF90FF9013
:103C20000F911F91CF91DF91992787FD909508956E
:103C30000E945A1E08F481E00895E89409C097FB99
:103C40003EF490958095709561957F4F8F4F9F4F73
:103C50009923A9F0F92F96E9BB279395F6958795B7
:103C600077956795B795F111F8CFFAF4BB0F11F47A
:103C700060FF1BC06F5F7F4F8F4F9F4F16C0882321
:103C800011F096E911C0772321F09EE8872F762F57
:103C900005C0662371F096E8862F70E060E02AF098
:103CA0009A95660F771F881FDAF7880F9695879584
:103CB00097F90895990F0008550FAA0BE0E8FEEF59
:103CC00016161706E807F907C0F012161306E407E0
:103CD000F50798F0621B730B840B950B39F40A26D9
:103CE00061F0232B242B252B21F408950A2609F4B7
:103CF000A140A6958FEF811D811D08950E94911E00
:103D00000C94021F0E94F41E38F00E94FB1E20F04B
:103D1000952311F00C94EB1E0C94F11E11240C94BD
:103D2000361F0E94131F70F3959FC1F3950F50E04B
:103D3000551F629FF001729FBB27F00DB11D639F5D
:103D4000AA27F00DB11DAA1F649F6627B00DA11D03
:103D5000661F829F2227B00DA11D621F739FB00DA9
:103D6000A11D621F839FA00D611D221F749F332719
:103D7000A00D611D231F849F600D211D822F762FB2
:103D80006A2F11249F5750409AF0F1F088234AF08F
:103D9000EE0FFF1FBB1F661F771F881F91505040FB
:103DA000A9F79E3F510580F00C94EB1E0C94361F32
:103DB0005F3FE4F3983ED4F3869577956795B79582
:103DC000F795E7959F5FC1F7FE2B880F911D96959C
:103DD000879597F9089597F99F6780E870E060E00C
:103DE00008959FEF80EC089500240A941616170694
:103DF00018060906089500240A94121613061406DC
:103E000005060895092E0394000C11F4882352F03E
:103E1000BB0F40F4BF2B11F460FF04C06F5F7F4FF6
:103E20008F4F9F4F089557FD9058440F551F59F0DD
:103E30005F3F71F04795880F97FB991F61F09F3F97
:103E400079F087950895121613061406551FF2CFC0
:103E50004695F1DF08C0161617061806991FF1CF10
:103E600086957105610508940895E894BB27662737
:103E70007727CB0197F90895052E97FB1EF4009440
:103E80000E94531F57FD07D00E946E1F07FC03D0EE
:103E90004EF40C94531F50954095309521953F4F0B
:103EA0004F4F5F4F089590958095709561957F4F26
:103EB0008F4F9F4F08950E94901FA59F900DB49F14
:103EC000900DA49F800D911D11240895B7FF0C94AF
:103ED0005B1F0E945B1F821B930B0895A1E21A2EA9
:103EE000AA1BBB1BFD010DC0AA1FBB1FEE1FFF1F9E
:103EF000A217B307E407F50720F0A21BB30BE40BEE
:103F0000F50B661F771F881F991F1A9469F7609534
:103F10007095809590959B01AC01BD01CF010895EE
:103F2000A29FB001B39FC001A39F700D811D1124FA
:103F3000911DB29F700D811D1124911D089550583F
:103F4000BB27AA270E94B71F0C94021F0E94F41ED1
:103F500038F00E94FB1E20F039F49F3F19F426F43C
:103F60000C94F11E0EF4E095E7FB0C94EB1EE92F88
:103F70000E94131F58F3BA17620773078407950747
:103F800020F079F4A6F50C94351F0EF4E0950B2E75
:103F9000BA2FA02D0B01B90190010C01CA01A0019B
:103FA0001124FF27591B99F0593F50F4503E68F1F6
:103FB0001A16F040A22F232F342F4427585FF3CF37
:103FC000469537952795A795F0405395C9F77EF408
:103FD0001F16BA0B620B730B840BBAF09150A1F051
:103FE000FF0FBB1F661F771F881FC2F70EC0BA0FD7
:103FF000621F731F841F48F4879577956795B7955F
:10400000F7959E3F08F0B0CF9395880F08F0992759
:10401000EE0F9795879508950E9420200C94021F1B
:104020000E94FB1E58F00E94F41E40F029F45F3FEE
:1040300029F00C94EB1E51110C94361F0C94F11EB8
:104040000E94131F68F39923B1F3552391F3951B35
:10405000550BBB27AA2762177307840738F09F5FA9
:104060005F4F220F331F441FAA1FA9F335D00E2E16
:104070003AF0E0E832D091505040E695001CCAF783
:104080002BD0FE2F29D0660F771F881FBB1F261746
:1040900037074807AB07B0E809F0BB0B802DBF011D
:1040A000FF2793585F4F3AF09E3F510578F00C94EC
:1040B000EB1E0C94361F5F3FE4F3983ED4F38695D5
:1040C00077956795B795F7959F5FC9F7880F911D0D
:1040D0009695879597F90895E1E0660F771F881FF9
:1040E000BB1F621773078407BA0720F0621B730BAC
:1040F000840BBA0BEE1F88F7E09508950E94852087
:104100006894B1110C94361F08950E941B1F88F00B
:104110009F5798F0B92F9927B751B0F0E1F0660F8B
:10412000771F881F991F1AF0BA95C9F714C0B130CC
:1041300091F00E94351FB1E008950C94351F672F50
:10414000782F8827B85F39F0B93FCCF386957795FB
:104150006795B395D9F73EF49095809570956195E4
:104160007F4F8F4F9F4F08950E945A1E08F48FEF84
:1041700008950E945A1E880B990B0895DB018F93B6
:104180009F930E945B1FBF91AF91A29F800D911DD5
:10419000A39F900DB29F900D11240895991B79E073
:1041A00004C0991F961708F0961B881F7A95C9F7C7
:1041B00080950895EE0FFF1F881F8BBF0790F69123
:1041C000E02D19940F931F93CF93DF9382309105C5
:1041D00010F482E090E0E0916F06F091700630E01C
:1041E00020E0B0E0A0E0309799F42115310509F402
:1041F0004AC0281B390B24303105D8F58A819B81B0
:104200006115710589F1FB0193838283FE0111C061
:10421000408151810281138148175907E0F0481706
:10422000590799F4109761F012960C931297139610
:104230001C933296CF01DF91CF911F910F9108957A
:1042400000936F0610937006F4CF2115310551F0DD
:104250004217530738F0A901DB019A01BD01DF01C4
:10426000F801C1CFEF01F9CF9093700680936F06EC
:10427000CDCFFE01E20FF31F8193919322503109BC
:1042800039832883D7CF20916D0630916E06232B7A
:1042900041F4209102023091030230936E06209384
:1042A0006D0620910002309101022115310541F483
:1042B0002DB73EB74091040250910502241B350BE7
:1042C000E0916D06F0916E06E217F307A0F42E1B45
:1042D0003F0B2817390778F0AC014E5F5F4F24176A
:1042E000350748F04E0F5F1F50936E0640936D06E2
:1042F000819391939FCFF0E0E0E09CCFCF93DF9349
:104300000097E9F0FC01329713821282A0916F06A8
:10431000B0917006ED0130E020E01097A1F420810B
:104320003181820F931F20916D0630916E06281700
:10433000390709F061C0F0936E06E0936D06DF91D6
:10434000CF910895EA01CE17DF07E8F54A815B8136
:104350009E0141155105B1F7E901FB83EA834991BB
:104360005991C40FD51FEC17FD0761F4808191812D
:104370000296840F951FE901998388838281938136
:104380009B838A83F0E0E0E012968D919C911397D5
:104390000097B9F52D913C911197CD010296820FAE
:1043A000931F20916D0630916E062817390739F654
:1043B000309751F51092700610926F06B0936E060A
:1043C000A0936D06BCCFD383C28340815181840FFB
:1043D000951FC817D90761F44E5F5F4F8881998197
:1043E000480F591F518340838A819B819383828325
:1043F0002115310509F0B0CFF0937006E0936F06F8
:104400009ECFFD01DC01C0CF13821282D7CF4F9225
:104410005F926F927F928F929F92AF92BF92CF9254
:10442000DF92EF92FF920F931F93CF93DF938C0154
:10443000009799F4CB01DF91CF911F910F91FF90DD
:10444000EF90DF90CF90BF90AF909F908F907F9034
:104450006F905F904F900C94E220FC01E60FF71FE5
:104460009C0122503109E217F30708F4AEC0D901CC
:10447000CD91DC911197C617D70720F1C530D10532
:1044800078F0CE0104978617970750F0C61BD70B1C
:104490002297C193D1936D937C93CF010E947E218B
:1044A000C801DF91CF911F910F91FF90EF90DF90A6
:1044B000CF90BF90AF909F908F907F906F905F90C4
:1044C0004F9008955B01AC1ABD0A4C018C0E9D1EE5
:1044D000A0916F06B0917006512C412CF12CE12C6B
:1044E000109731F580916D0690916E0688159905AB
:1044F00009F05CC04616570608F058C080910002CB
:1045000090910102009741F48DB79EB7409104024B
:1045100050910502841B950BE817F90708F055C068
:10452000F0936E06E0936D06F90171836083B8CF56
:104530008D919C91119712966C90129713967C9086
:104540001397A815B90559F56C0142E0C40ED11CAA
:10455000CA14DB0420F1AC014A195B09DA01129696
:10456000159780F06282738251834083D9016D93E5
:104570007C93E114F10471F0D7011396FC93EE9350
:1045800012978ECF22968C0F9D1FF9019183808305
:10459000F301EFCFF0937006E0936F0681CF4816DA
:1045A000590608F42C017D01D3019ACFCB010E945A
:1045B000E2207C01009749F0AE01B8010E94E82298
:1045C000C8010E947E2187016BCF10E000E068CF18
:1045D000FB01DC0102C001900D9241505040D8F720
:1045E0000895FB01DC018D91019080190110D9F330
:1045F000990B0895FB01DC0101900D920020E1F779
:104600000895FB01DC014150504048F001900D92AB
:104610000020C9F701C01D9241505040E0F70895B5
:1046200011E0C7EFD1E000E006C0802FFE010E943C
:10463000DA202196011DC83FD10780E00807A9F7BD
:04464000F894FFCF1C
:104644000000710680000000000014037402A1023F
:104654006103D202B002C40200000000E406B706FF
:1046640013078D06B0069D068E060D0A006E616E58
:1046740000696E66006F7666005B534552564F5D67
:10468400202D20002C005B4D4F544F525D202D20D7
:10469400005370656564203D20005741495420470C
:1046A4005053004750524D4300474E524D4300472C
:1046B4005047474100474E474741005B4750535DD1
:1046C4002020202D20004C617469747564652020BD
:1046D400203D20004C6F6E67697475646520203D31
:1046E4002000576169742056616C696420446174C8
:1046F400612E2E005B4759524F5D20202D20583AE1
:10470400002C593A002C5A3A005B424D505D20204F
:10471400202D204149522050726573737572653A99
:064724002000205061009E
:00000001FF
