:1000000073C10000A2C10000A0C100009EC1000099
:100010009CC100009AC1000098C1000096C1000078
:1000200094C100000C941A0F0C941A0F0C941A0F20
:100030008CC100008AC1000088C1000086C1000098
:1000400084C100000C94D21080C100007EC1000069
:100050007CC100007AC1000078C100000C94D00E71
:1000600074C100000C949A0E0C94700E6EC10000C6
:100070006CC100006AC1000068C1000066C10000D8
:100080000C94A41062C1000060C100005EC10000B9
:100090005CC100005AC1000058C100000C94240F3C
:1000A00054C1000052C100000C9476104EC10000F3
:1000B0004CC100004AC1000048C100000C94481027
:1000C00044C1000042C1000040C100000C943A0E3F
:1000D0000C94100E3AC1000038C1000036C1000077
:1000E00034C1000000407A10F35A00A0724E180983
:1000F0000010A5D4E80000E87648170000E40B548F
:10010000020000CA9A3B000000E1F505000080965D
:100110009800000040420F000000A086010000008F
:10012000102700000000E803000000006400000049
:1001300000000A00000000000100000000002C7612
:10014000D888DC674F0823DFC1DFAE59E1B1B7962D
:10015000E5E3E453C63AE651997696E8E6C284268A
:10016000EB898C9B62ED407C6FFCEFBC9C9F40F266
:10017000BAA56FA5F490055A2AF75C936B6CF967E2
:100180006DC11BFCE0E40D47FEF520E6B500D0EDA7
:10019000902E0300943577050080841E080000200F
:1001A0004E0A000000C80C333333330F986E1283AD
:1001B0001141EF8D2114893BE65516CFFEE6DB1881
:1001C000D1844B381BF77C1D901DA4BBE424203246
:1001D00084725E228100C9F124ECA1E53D27000074
:1001E0000A0B02090C0D0E080703040100000000B1
:1001F00000000000000000000000000000000000FF
:1002000000000000000000000000121110000000BB
:1002100000000000000000000000000000000000DE
:100220000000000000002200250028002B002E0006
:100230003100340002010000050108010B0100003B
:100240002100240027002A002D0030003300010186
:100250000000040107010A01050505050705080856
:100260000808020202020A0A080804040404010140
:100270000101010101010303030303030303040755
:1002800007070C0C0C0C0C0C0C0C020202020606EC
:100290000606060606060B0B0B0B0B0B0B0B0102DF
:1002A0001020200808102040102040800201020188
:1002B0000804020101020408102040808040201040
:1002C0000804020180040201804020100804020199
:1002D0000804020101020408102040800102040801
:1002E000102040803711571811241FBECFEFD1E2E4
:1002F000DEBFCDBF00E00CBF12E0A0E0B2E0E0EC5A
:10030000FFE300E00BBF02C007900D92A63EB107CD
:10031000D9F726E0A6EEB2E001C01D92AB36B207D7
:10032000E1F711E0C3E7D1E000E006C02197010941
:10033000802FFE010E949E1DC237D10780E0080772
:10034000A9F70E9445120C94CF1F5ACEFC01A08938
:10035000B18982E08C93A485B5851C92A685B7856A
:100360008FEC8C93108EA489B58986E08C93A2893A
:10037000B3898C9180618C93A289B3898C918860B8
:100380008C93A289B3898C9180688C930288F389BD
:10039000E02D80818F7D8083089590E0FC01E256FE
:1003A000FD4F2491885A9D4FFC018491882399F038
:1003B00090E0880F991FFC01E25CFD4FA591B4917C
:1003C000FC01EC5DFD4F859194918FB7F894EC9111
:1003D000E22BEC938FBF0895982F2091450481E084
:1003E000213208F043C0809121048111FCCF80911B
:1003F000440432E030932104909320049FEF9093C3
:100400001F0410921E0420931D04A4E2B4E0EDEF3B
:10041000F3E090E0291331C01092FC039091FC03AB
:10042000880F892B8093FC038091FB03813049F571
:100430001092FB038091FC038093BB008091BC0071
:1004400083FDF8CF85EC8093BC008091210482303D
:10045000E1F380911F048F3FB1F080911F0480323F
:10046000A1F080911F04803391F084E01092230466
:10047000109245041092220408953D9131939F5F9C
:10048000C9CF85EEE0CF80E0F1CF82E0EFCF83E00F
:10049000EDCFDC0111968D919C91DC01ED91FC91E9
:1004A0000280F381E02D41E050E01995019721F49D
:1004B00081E092DF91E0811190E0892F08950F9300
:1004C0001F93CF93DF93E1E0F0E02115310511F0A8
:1004D000E2E0F0E0EC01AC81BD81AE17BF0730F186
:1004E000DA018B0189819A81488151E0509322047D
:1004F000409344041092230410924504232B39F4B2
:10050000B801CE01DF91CF911F910F91C2CF10970B
:10051000B9F3FC0120813181F9012281338141E06D
:1005200050E0BD01F9011995019751F380E0DF9189
:10053000CF911F910F910895089508950895AF9256
:10054000BF92CF92DF92EF92FF920F931F93CF93C0
:10055000DF936C017B018B01040F151FEB015E0122
:10056000AE18BF08C017D10759F06991D601ED91B7
:10057000FC910190F081E02DC6011995892B79F746
:10058000C501DF91CF911F910F91FF90EF90DF9008
:10059000CF90BF90AF900895FC01538D448D252FCF
:1005A00030E0842F90E0821B930B541710F0CF960D
:1005B000089501970895FC01918D828D981761F03F
:1005C000A28DAE0FBF2FB11D5D968C91928D9F5F56
:1005D0009F73928F90E008958FEF9FEF0895FC0135
:1005E000918D828D981731F0828DE80FF11D858DE8
:1005F00090E008958FEF9FEF0895FC01918D228D7B
:10060000892F90E0805C9F4F821B91098F739927FF
:10061000089586E494E0F1DF21E0892B09F420E0DD
:10062000822F089583EE94E0E8DF21E0892B09F41E
:1006300020E0822F0895FC01A48DA80FB92FB11DD1
:10064000A35ABF4F2C91848D90E001968F73992708
:10065000848FA689B7892C93A089B1898C918370E6
:1006600080648C93938D848D981306C00288F389DF
:10067000E02D80818F7D80830895EF92FF920F930C
:100680001F93CF93DF93EC0181E0888F9B8D8C8D3E
:1006900098131AC0E889F989808185FF15C09FB732
:1006A000F894EE89FF896083E889F98980818370F5
:1006B000806480839FBF81E090E0DF91CF911F91A4
:1006C0000F91FF90EF900895F62E0B8D10E00F5FC5
:1006D0001F4F0F731127E02E8C8D8E110BC00FB69C
:1006E00007FCFACFE889F989808185FFF5CFCE0133
:1006F000A2DFF2CFEB8DEC0FFD2FF11DE35AFF4F80
:10070000F0829FB7F8940B8FEA89FB898081806221
:10071000D0CFCF93DF93EC01888D8823B1F0AA89E5
:10072000BB89E889F9898C9185FD03C0808186FDAC
:100730000CC00FB607FCF7CF8C9185FFF2CF8081FC
:1007400085FFEDCFCE0177DFEACFDF91CF9108951E
:1007500080E090E0892B21F065DF81110E9400008C
:1007600080E090E0892B49F080E090E0892B29F02F
:100770000E94000081110E94000080E090E0892B1F
:1007800021F047DF81110E94000080E090E0892B7A
:1007900049F080E090E0892B29F00E94000081114F
:1007A0000C9400000895282F30E0F901E252FE4F2A
:1007B0009491F901E256FD4F4491285A3D4FF901B9
:1007C0002491222309F435C0992311F191509231DB
:1007D000F8F4E92FF0E08827EF50FC4F8F4F0C948E
:1007E0009E1D2204260403041A041E04080429047E
:1007F0002F04330439043D04410447044B04080426
:100800004F0455045904809180008F7780938000B5
:10081000E22FF0E0EE0FFF1FEC5DFD4FA591B491CC
:100820008FB7F894EC91611148C040954E234C93DA
:100830008FBF0895809180008F7DE8CF80918000E8
:10084000877FE4CF84B58F7784BDE2CF84B58F7D79
:10085000FBCF8091B0008F778093B000D9CF80918B
:10086000B0008F7DF9CF809190008F7780939000BA
:10087000CFCF809190008F7DF9CF80919000877FBE
:10088000F5CF8091A0008F778093A000C1CF809199
:10089000A0008F7DF9CF8091A000877FF5CF809158
:1008A00020018F7780932001B3CF809120018F7D2D
:1008B000F9CF80912001877FF5CF4E2BB8CF909153
:1008C0007B00977F90937B008653806480937C00AD
:1008D00080917A00806480937A0080917A0086FD0E
:1008E000FCCF809178009091790008953FB7F894FB
:1008F0008091C5039091C603A091C703B091C8032E
:1009000026B5A89B05C02F3F19F00196A11DB11D6A
:100910003FBFBA2FA92F982F8827BC01CD01620FA6
:10092000711D811D911D42E0660F771F881F991F61
:100930004A95D1F708958F929F92AF92BF92CF922E
:10094000DF92EF92FF924B015C01D0DF6B017C01E3
:10095000CDDF6C197D098E099F09683E73408105C2
:100960009105B0F321E0821A9108A108B10888EE40
:10097000C80E83E0D81EE11CF11C81149104A1046F
:10098000B10431F7FF90EF90DF90CF90BF90AF9020
:100990009F908F9008952FB7F8946091C103709144
:1009A000C2038091C3039091C4032FBF0895CF93D6
:1009B000DF93EC018A859B85AC85BD858E839F8303
:1009C000A887B987E8DF6A837B838C839D8381E076
:1009D00089838883DF91CF910895CF93DF93EC01D2
:1009E0008E819F81A885B9858A839B83AC83BD83D3
:1009F000D2DF6A877B878C879D8781E089838883A4
:100A0000DF91CF91089585ED8093BC008091BC006B
:100A100084FDFCCF10922104089520919B03260FA2
:100A20003327331F21323105ECF420912104FC01DE
:100A300090E080E0243069F082E00895A0919B036B
:100A40002191AC0145585C4FA40FB52FB11D2C93DB
:100A50000196861798F380919B03680F60939B0320
:100A600080E0089581E008951092210481E0809350
:100A700020041092FB0361E084E195DE61E085E1F2
:100A800092DEE9EBF0E080818E7F808380818D7F34
:100A9000808388E48093B80085E48093BC00089547
:100AA0000895E091DA038091D903E81730F4F0E07B
:100AB000E552FC4F808190E008958FEF9FEF0895FD
:100AC0009091DA038091D9032FEF3FEF981748F404
:100AD000E92FF0E0E552FC4F208130E09F5F9093DA
:100AE000DA03C90108958091D9039091DA03891B33
:100AF000990B0895CF92DF92EF92FF920F931F937D
:100B0000CF93DF937C01CB018A0120912204222321
:100B100089F0EB016B01C40ED51ECC15DD0561F02B
:100B20006991D701ED91FC910190F081E02DC70111
:100B30001995F3CF642F71DFC801DF91CF911F9119
:100B40000F91FF90EF90DF90CF900895CF93DF93B8
:100B50001F92CDB7DEB76983209122042223F9F0DA
:100B600020914504203258F021E030E0FC0133832D
:100B7000228390E080E00F90DF91CF9108958091E3
:100B80002304E82FF0E0EC5DFB4F998190838F5FA9
:100B9000809323048093450481E090E0ECCF61E0F2
:100BA000CE0101963ADFF8CF90E080E00895CF9330
:100BB000DF93EC018B81882399F0888191E09093F9
:100BC000220480934404109223041092450481E08F
:100BD00003DC91E0811190E0892FDF91CF9108959E
:100BE0001092DA031092D903109223041092450454
:100BF0003BDF8CE992E09093CA038093C9038DE9AF
:100C000092E09093CC038093CB0381E08B83CE0161
:100C1000CEDF982F8111D1CFDFCFCF92DF92EF922D
:100C2000FF92CF93DF93EC01603282E07807CCF53E
:100C3000653B710514F064EB70E0898128E830E0D1
:100C4000281B310987FD3395220F331F220F331FD5
:100C50006901330FEE08FF088A8128E532E0281B7E
:100C6000310987FD3395220F331F220F331F032EC7
:100C7000000C440B550B2C193D094E095F09DB0193
:100C800077FF02C0B0E0A0E00E94461C24EB30E0F9
:100C900040E050E00E94201CC20ED31EE41EF51E50
:100CA000B601E881E03370F5298188E890E0821B85
:100CB000910927FD9395880F991F880F991F681731
:100CC00079077CF02A8188E592E0821B910927FD53
:100CD0009395880F991F880F991F681779070CF44F
:100CE000CB010297880F991F4FB7F8942E2F30E051
:100CF000F901EE0FFF1FE20FF31FE551FD4F928345
:100D000081834FBFDF91CF91FF90EF90DF90CF9025
:100D100008951F93CF93DF93EC01162F88818033C2
:100D200008F04CC0862F39DB8881282F30E0F9018C
:100D3000EE0FFF1FE20FF31FE551FD4F1F736081A0
:100D4000607C612B608319821A822CE0622F0E94E2
:100D5000921D829FB001112430E020E0AB01420FD0
:100D6000531FFA01EE0FFF1FE40FF51FE551FD4F72
:100D7000908196FD16C02F5F3F4F2C30310571F7E3
:100D8000813009F51092800082E0809381001092FA
:100D9000850010928400B19A80916F0082608093E8
:100DA0006F00E8818E2F90E0FC01EE0FFF1FE80F2F
:100DB000F91FE551FD4F8081806480838881DF9138
:100DC000CF911F910895823061F41092900080932A
:100DD0009100109295001092940088BB809371004E
:100DE000E0CF833069F41092A00082E08093A100EC
:100DF0001092A5001092A40089BB80937200D1CFFD
:100E00008111CFCF1092200182E0809321011092B6
:100E10002501109224018ABB80937300C2CFAF9248
:100E2000BF92CF92DF92EF92FF920F931F93CF93D7
:100E3000DF936B017A01EC01CA51DD4F28813CE060
:100E4000389F8001399F100D1124A090EA02B12C27
:100E500027FF1FC0FB011182108288818F5F88836A
:100E600088819801280F311D87FD3A95F6012A15D2
:100E70003B051CF488818C30BCF180819181049603
:100E800080349C4908F471C0F601808191810496F8
:100E90006EC088819801280F311D87FD3A952A156B
:100EA0003B05DCF68881A801480F511D87FD5A9546
:100EB000FA01EE0FFF1FE40FF51FE551FD4F808192
:100EC00086FFCBCF8881F801E80FF11D87FDFA95E9
:100ED000CF01EE0FFF1FE80FF91FE551FD4F808195
:100EE00060E08F7360DCB9CF808191812881A80197
:100EF000420F511D27FD5A959A01FA01EE0FFF1F6F
:100F0000E20FF31FE551FD4F21813281820F931FC4
:100F1000F7019183808388819801280F311D87FD17
:100F20003A95F901EE0FFF1FE20FF31FE551FD4F58
:100F3000808186FF21C08881080F111D87FD1A95C9
:100F4000F801EE0FFF1FE00FF11FE551FD4F80810B
:100F500061E08F73DF91CF911F910F91FF90EF9020
:100F6000DF90CF90BF90AF901ECC80E49CE9F7015A
:100F7000918380838FEF8883DF91CF911F910F91B1
:100F8000FF90EF90DF90CF90BF90AF9008958F9239
:100F90009F92AF92BF92CF92DF92EF92FF926B013E
:100FA0007C0120E030E0A9010E94071B6AE570E0A7
:100FB000882309F120E030E044EB52E4C701B60198
:100FC0000E946C1B4B015C0120E030E0A901C701CD
:100FD000B6010E947B1D20E030E046EB52E418167B
:100FE00024F020E030E044EB52E4C501B4010E945B
:100FF0007E1C0E944A1DCB01FF90EF90DF90CF90A6
:10100000BF90AF909F908F900895BF92CF92DF9244
:10101000EF92FF920F931F93CF93DF93DC0114960F
:10102000ED91FC911597EF2B09F48AC0E901C52ECB
:10103000B42E8C01FC01808191E090932204809376
:1010400044041092230410924504CD0122DAD82ED4
:10105000882309F475C0D80114968D919C918C1742
:101060009D0708F46DC0809121048111FCCF9C2F55
:10107000F801808121E020932104209320043FEF98
:1010800030931F0410921E043C2F315030931D04E6
:101090002093FC032091FC03880F822B8093FC0398
:1010A0008091FB03813009F045C01092FB038091D1
:1010B000FC038093BB008091BC0083FDF8CF85ECDE
:1010C0008093BC00809121048130E1F380911E0463
:1010D000891710F490911E04EDEFF3E0ABEDB3E04F
:1010E00080E0891329C01092DA038093D9038C170A
:1010F0001D0631F5EB2CFC2CCE0DDF1DD801119611
:101100008D919C91DC01ED91FC910284F385E02DA1
:101110001995F70181937F01CE17DF0779F78D2DA0
:10112000DF91CF911F910F91FF90EF90DF90CF90C3
:10113000BF90089585EEC4CF21912D938F5FD1CFBD
:10114000D12CEDCFCF93DF9300D0CDB7DEB78B831B
:1011500022E030E0AE014F5F5F4FBE016D5F7F4F19
:10116000809195059091960550DF89819A81982705
:10117000892798270F900F900F90DF91CF910895B6
:101180004F925F926F927F928F929F92AF92BF9297
:10119000CF92DF92EF92FF921F93CF93DF9300D015
:1011A00000D000D01F92CDB7DEB78EE28E8314EF51
:1011B0001D8321E030E0AE014B5F5F4FBE016A5FEF
:1011C0007F4F809195059091960579D965E070E003
:1011D00080E090E0B0DB86EFB5DF4C01B12CA12CB4
:1011E000809197058295880F880F807C8C5C8C831A
:1011F0001B8321E030E0AE014D5F5F4FBE016C5FAD
:101200007F4F809195059091960559D980919705CA
:1012100081117AC165E070E080E090E08CDB86EFC0
:1012200091DFB0E0A0E0CC24D82EE92EFA2E88EF92
:101230008A8321E030E0AE014F5F5F4FBE016E5FF9
:101240007F4F8091950590919605DFDE8981C82AB0
:10125000109197058091AC059091AD05A501940181
:10126000281B390B41095109A091AA05B091AB0582
:101270000E943C1C2B013C01AFE07594679457948D
:101280004794AA95D1F76091A4057091A505072E02
:10129000000C880B990BBBE0660F771F881F991F06
:1012A000BA95D1F72091A6053091A705032E000C21
:1012B000440B550B240D351D461D571D0E94201C47
:1012C000420E531E641E751E20EA421A2FE0520A77
:1012D00061087108A3019201C301B2010E94831D3C
:1012E0004B015C018CE0B594A794979487948A9500
:1012F000D1F7A0919C05B0919D050E94461C9B01D1
:10130000AC019DE055954795379527959A95D1F76E
:101310002F83388749875A87A0919E05B0919F05F2
:10132000A50194010E94461C9C01552737FD50954C
:10133000452F8F819885A985BA85280F391F4A1FA7
:101340005B1F2E5F3F4F4F4F5F4F62E055954795B4
:10135000379527956A95D1F730584F4F5F4FA09139
:10136000A805B091A9050E943C1C9B01AC017FE03F
:1013700056954795379527957A95D1F72F833887D6
:1013800049875A8788E090E0811B910904C0F69450
:10139000E794D794C7948A95D2F7A091A005B0910D
:1013A000A105A50194010E94461C4B015C01EBE0E4
:1013B000B594A79497948794EA95D1F7A0919A054C
:1013C000B0919B05A30192010E94461CFBE09595FC
:1013D000879577956795FA95D1F7680D791D8A1DE0
:1013E0009B1D8090980590909905092C000CAA08E7
:1013F000BB08A2E0880C991CAA1CBB1CAA95D1F7BB
:10140000680D791D8A1D9B1D012E04C0660F771F74
:10141000881F991F0A94D2F76E5F7F4F8F4F9F4F9F
:1014200024E030E040E050E00E94201CD701C601DB
:10143000821B930BA40BB50B9C01AD0160E573EC13
:1014400080E090E004C096958795779567951A950A
:10145000D2F70E94831D97FD6AC0660F771F881F11
:10146000991F2F81388549855A850E944C1C690136
:101470007A019927F7FC9A958F2D7E2D6D2D9B0172
:10148000AC010E94831D9B01AC01AEEDBBE00E944C
:101490003C1C4B015C01A3E4B3EEA70196010E9442
:1014A000481CBC01992777FD9095892F4501BB24E5
:1014B00097FCB094AB2C680D791D8A1D9B1D615360
:1014C000714F8F4F9F4F44E095958795779567951E
:1014D0004A95D1F76C0D7D1D8E1D9F1D2A960FB666
:1014E000F894DEBF0FBECDBFDF91CF911F91FF906B
:1014F000EF90DF90CF90BF90AF909F908F907F90B4
:101500006F905F904F900895813029F468E070E00B
:1015100080E090E083CE823029F46EE070E080E0DD
:1015200090E07CCE6AE170E080E090E077CE2F81A1
:10153000388549855A850E944C1C69017A01CC0C7A
:10154000DD1CEE1CFF1C95CFFC0101900020E9F78B
:101550003197AF01481B590BBC0183EE94E00C940A
:101560009F028F929F92AF92BF920F931F93CF9340
:10157000DF93CDB7DEB7A1970FB6F894DEBF0FBEED
:10158000CDBF19A2423008F44AE08E010F5D1F4F13
:10159000842E912CB12CA12CA50194010E944C1CED
:1015A000E62FB901CA01EA30ECF4E05DD801EE9310
:1015B0008D01232B242B252B79F790E080E01097C9
:1015C00011F0CD01C1DFA1960FB6F894DEBF0FBEBA
:1015D000CDBFDF91CF911F910F91BF90AF909F90A2
:1015E0008F900895E95CE2CFCF92DF92EF92FF9265
:1015F000CF93DF9397FF19C06B017C016DE283EEFF
:1016000094E03BD8EC0166277727CB016C197D0964
:101610008E099F094AE0A5DF8C0F9D1FDF91CF91B6
:10162000FF90EF90DF90CF9008954AE0DF91CF9147
:10163000FF90EF90DF90CF9094CF86CFCF93DF9342
:1016400083DFEC018AE292E07FDF8C0F9D1FDF9148
:10165000CF9108954F925F926F927F928F929F9257
:10166000AF92BF92CF92DF92EF92FF920F931F93B0
:10167000CF936B017C01742EAC019B010E947F1DF6
:10168000882391F08DE292E0CF911F910F91FF900E
:10169000EF90DF90CF90BF90AF909F908F907F9012
:1016A0006F905F904F9050CF46015701E894B7F884
:1016B0002FEF3FEF4FE75FE7C501B4010E947F1DA9
:1016C00081110DC02FEF3FEF4FE75FE7C501B40178
:1016D0000E94071B18161CF481E392E0D5CF2FEF70
:1016E0003FEF4FE75FE4C701B6010E947B1D18166C
:1016F0001CF485E392E0C8CF2FEF3FEF4FE75FEC9C
:10170000C701B6010E94071B87FDF3CF20E030E040
:10171000A901C701B6010E94071B10E000E087FF86
:101720000AC06DE283EE94E00E943D038C01F7FA5B
:10173000F094F7F8F094C0E060E070E080E09FE3A0
:101740007C1641F020E030E040E251E40E94E21CCF
:10175000CF5FF6CFA70196010E947E1C2B013C01B2
:101760000E944F1D4B015C014AE0FBDE7C01E00E54
:10177000F11ECC23B9F1C501B4010E940B1B9B01E2
:10178000AC01C301B2010E947D1C4B015C016EE201
:1017900083EE94E00E943D03E80EF91EC15010F163
:1017A00020E030E040E251E4C501B4010E946C1B2E
:1017B0002B013C010E944F1D4B01B12CA12C4AE092
:1017C000C501B401CEDEE80EF91EC501B4010E94C8
:1017D0000B1B9B01AC01C301B2010E947D1C4B019C
:1017E0005C01DCCFC701CF911F910F91FF90EF906B
:1017F000DF90CF90BF90AF909F908F907F906F9031
:101800005F904F900895CF93DF9324DFEC018AE23D
:1018100092E09ADE8C0F9D1FDF91CF910895EF9299
:10182000FF920F931F93CF93DF937C018B01EA010B
:10183000BC0182E995E0F1D9B8018FE895E0EDD9D6
:10184000BE018CE895E0E9D989E392E0F6DEB701C4
:10185000FF0C880B990BC8DE84E492E0EEDEB80141
:10186000110F880B990BC0DE84E492E0E6DEBE0126
:10187000DD0F880B990BB8DE8AE292E0DF91CF9101
:101880001F910F91FF90EF905FCECF93DF93D82FF2
:10189000C92F89E00E94CD0161E089E00E94D30355
:1018A00060E088E00E94D30386E492E0C6DE81E532
:1018B00092E0C3DE6D2F7C2F6F3F710519F014F09D
:1018C0006FEF70E077FF02C070E060E0072E000C61
:1018D000880B990B89DE8AE292E0DF91CF9134CEBA
:1018E0002F923F924F925F926F927F928F929F9230
:1018F000AF92BF92CF92DF92EF92FF920F931F931E
:10190000CF93DF93D82FC92F8B010E947C1824E638
:1019100030E040E050E00E944C1C49019B01AC01CA
:1019200060E876E988E990E00E94831D6B017C0104
:10193000F80191828082ED2FFC2F2191822F022EBF
:10194000000C990BC0970A97C0F32E3239F51F018E
:1019500080E8882E86E9982E88E9A82EB12C9AE096
:10196000492E512C612C712CF101C1911F010C2EBB
:10197000000CDD0BE097CA30D10580F4C501B4013D
:10198000A30192010E944C1C49015A01DE010E94F0
:10199000461CC60ED71EE81EF91EE6CFA5E0B0E035
:1019A000A70196010E943C1C6F5F7F4F8F4F9F4F96
:1019B00023E030E040E050E00E944C1CF80122831C
:1019C0003383448355831682DF91CF911F910F910A
:1019D000FF90EF90DF90CF90BF90AF909F908F904F
:1019E0007F906F905F904F903F902F9008951F933E
:1019F000CF93DF93EC0118811D3209F42196CE01BB
:101A00000E947C189B01AC01A4E6B0E00E943C1C43
:101A1000AB01BC01FE012991822F022E000C990B13
:101A2000C0970A97B8F32E3231F58181082E000C49
:101A3000990BC0978A309105F0F4AAE0A89F900115
:101A4000A99F300D1124C901330FAA0BBB0B480FFE
:101A5000591F6A1F7B1F8281082E000C990BC097AB
:101A60008A30910540F4092E000CAA0BBB0B480FDD
:101A7000591F6A1F7B1F1D3239F470956095509570
:101A800041955F4F6F4F7F4FCB01BA01DF91CF91EF
:101A90001F9108950F931F93CF93DF938C01EB0158
:101AA000FC01808191810097E1F068817981611565
:101AB0007105A9F0428153812C813D814217530762
:101AC00070F00E94B91F8C819D81F80195838483F9
:101AD0001D821C82DF91CF911F910F9108950E946A
:101AE000421E88819981F801918380838A819B813C
:101AF000938382838C819D8195838483198218824C
:101B00001B821A82E5CFCF93DF93EC018881998104
:101B1000009711F00E94421E198218821D821C82B9
:101B20001B821A82DF91CF910895FC0180819181FF
:101B3000009711F00C94421E08950F931F93CF93BA
:101B4000DF93EC0188819981009759F02A813B81CC
:101B50002617370730F081E0DF91CF911F910F9169
:101B600008958B016F5F7F4F0E94CB1E009759F045
:101B7000998388831B830A832C813D81232B59F70A
:101B8000FC011082E8CF80E0E7CFCF92DF92EF92A6
:101B9000FF920F931F93CF93DF93CDB7DEB7A1973B
:101BA0000FB6F894DEBF0FBECDBF7C01CB01BA01EA
:101BB000F7011182108213821282158214828E0123
:101BC0000F5F1F4F26E048E00E945F186C010097EE
:101BD00069F0FC0101900020E9F731978F01081BA3
:101BE000190BB801C701A9DF811111C0C7018BDF33
:101BF000A1960FB6F894DEBF0FBECDBFDF91CF9197
:101C00001F910F91FF90EF90DF90CF900895F70113
:101C100015830483B601808191810E94B91FE8CFAA
:101C20001F920F920FB60F9211240BB60F922F93A3
:101C30003F934F935F936F937F938F939F93AF9354
:101C4000BF93EF93FF9386E494E00E941B03FF9100
:101C5000EF91BF91AF919F918F917F916F915F9124
:101C60004F913F912F910F900BBE0F900FBE0F9091
:101C70001F9018951F920F920FB60F9211240BB65A
:101C80000F922F938F939F93EF93FF93E0915604BE
:101C9000F09157048081E0915C04F0915D0482FD35
:101CA0001DC0908180915F048F5F8F7320916004CD
:101CB000821741F0E0915F04F0E0EA5BFB4F958F03
:101CC00080935F04FF91EF919F918F912F910F90DF
:101CD0000BBE0F900FBE0F901F9018958081F2CF12
:101CE0001F920F920FB60F9211240BB60F922F93E3
:101CF0003F934F935F936F937F938F939F93AF9394
:101D0000BF93EF93FF9383EE94E00E941B03FF9138
:101D1000EF91BF91AF919F918F917F916F915F9163
:101D20004F913F912F910F900BBE0F900FBE0F90D0
:101D30001F9018951F920F920FB60F9211240BB699
:101D40000F922F938F939F93EF93FF93E091F30460
:101D5000F091F4048081E091F904F091FA0482FD9D
:101D60001DC090818091FC048F5F8F732091FD04D2
:101D7000821741F0E091FC04F0E0ED51FB4F958FAC
:101D80008093FC04FF91EF919F918F912F910F9081
:101D90000BBE0F900FBE0F901F9018958081F2CF51
:101DA0001F920F920FB60F9211242F933F938F9390
:101DB0009F93AF93BF938091C1039091C203A09171
:101DC000C303B091C4033091C00323E0230F2D3728
:101DD00058F50196A11DB11D2093C0038093C10346
:101DE0009093C203A093C303B093C4038091C5032F
:101DF0009091C603A091C703B091C8030196A11D9D
:101E0000B11D8093C5039093C603A093C703B093FD
:101E1000C803BF91AF919F918F913F912F910F90E8
:101E20000FBE0F901F90189526E8230F0296A11D54
:101E3000B11DD2CF1F920F920FB60F9211240F90A7
:101E40000FBE0F901F9018951F920F920FB60F9212
:101E500011240BB60F922F933F934F935F936F9381
:101E60007F938F939F93AF93BF93EF93FF93809153
:101E7000B900887F803609F44DC008F040C0883230
:101E800009F4A9C028F5803109F49DC0C8F488235D
:101E900009F4FBC0883009F496C0FF91EF91BF911F
:101EA000AF919F918F917F916F915F914F913F91F2
:101EB0002F910F900BBE0F900FBE0F901F90189593
:101EC000883109F488C0803241F780931F0414C020
:101ED000803409F49DC040F48033B9F38833E9F6C7
:101EE00080931F0485ECB0C0803509F485C0883527
:101EF00009F496C0883489F60E940305CECF88394C
:101F000009F48CC038F5883729F050F4883611F080
:101F1000803719F683E0809321041092BD0357C0E7
:101F2000883809F47BC0803919F0803809F0B5CFC2
:101F30008091BD03803208F071C0E091BD0381E063
:101F40008E0F8093BD038091BB00F0E0E356FC4F01
:101F500080833DC0803B39F0E0F4803A09F479C0D9
:101F6000883A09F09ACF84E08093210410929C0370
:101F700010929B03E091C903F091CA0319958091D7
:101F80009B0381110FC081E080939B0310927B0320
:101F900009C0803C09F4A6CF883C09F4A3CF883B54
:101FA00009F07BCFE0919C0381E08E0F80939C032E
:101FB000F0E0E558FC4F80818093BB0090919C033A
:101FC00080919B0329C08091FC038093BB0085EC2A
:101FD0008093BC0062CF90911E0480911D049817DD
:101FE00058F5E0911E0481E08E0F80931E04F0E00E
:101FF000E350FC4F8081E9CFE0911E0481E08E0F19
:1020000080931E048091BB00F0E0E350FC4F80837E
:1020100090911E0480911D049817C8F285E8D8CFCE
:10202000E0911E0481E08E0F80931E048091BB001E
:10203000F0E0E350FC4F80838091200481115CCF5D
:1020400081E08093FB0384EA8093BC00109221041A
:1020500024CF85EC8093BC00109221048091BD03B5
:10206000803230F4E091BD03F0E0E356FC4F108283
:102070006091BD0370E0E091CB03F091CC038DE95A
:1020800093E019951092BD0308CF10921F0434CF2E
:102090001F920F920FB60F9211240BB60F922F932F
:1020A0003F934F935F936F937F938F939F93AF93E0
:1020B000BF93EF93FF9348E251E064E271E090E058
:1020C00080E00E940F07FF91EF91BF91AF919F9128
:1020D0008F917F916F915F914F913F912F910F90D1
:1020E0000BBE0F900FBE0F901F9018951F920F926E
:1020F0000FB60F9211240BB60F922F933F934F936D
:102100005F936F937F938F939F93AF93BF93EF935F
:10211000FF9348EA50E064EA70E083E090E00E94B8
:102120000F07FF91EF91BF91AF919F918F917F9199
:102130006F915F914F913F912F910F900BBE0F9038
:102140000FBE0F901F9018951F920F920FB60F920F
:1021500011240BB60F922F933F934F935F936F937E
:102160007F938F939F93AF93BF93EF93FF9348E930
:1021700050E064E970E082E090E00E940F07FF9178
:10218000EF91BF91AF919F918F917F916F915F91EF
:102190004F913F912F910F900BBE0F900FBE0F905C
:1021A0001F9018951F920F920FB60F9211240BB625
:1021B0000F922F933F934F935F936F937F938F93E0
:1021C0009F93AF93BF93EF93FF9348E850E064E889
:1021D00070E081E090E00E940F07FF91EF91BF91C6
:1021E000AF919F918F917F916F915F914F913F91AF
:1021F0002F910F900BBE0F900FBE0F901F90189550
:10220000FC019091EA02903398F481E0890F809369
:10221000EA029083892F90E0FC01EE0FFF1FE80F88
:10222000F91FE551FD4F88EB9BE092838183089570
:102230008FEF80830895CF93DF93EC01198218828A
:102240001B821A821D821C8270E060E076DC8111A4
:1022500004C0CE01DF91CF9156CC1D821C826CE26E
:1022600072E088819981DF91CF910C94B91FE6E4E7
:10227000F4E01382128288EE93E0A0E0B0E0848361
:102280009583A683B7832AE032E03183208345ED2E
:1022900050E05587448744ED50E05787468740ED2E
:1022A00050E0518B408B41ED50E0538B428B42ED1F
:1022B00050E0558B448B46ED50E0578B468B118E8A
:1022C000128E138E148EE3EEF4E013821282848356
:1022D0009583A683B7833183208325EC30E035874F
:1022E000248724EC30E03787268720EC30E0318BE0
:1022F000208B21EC30E0338B228B22EC30E0358BCD
:10230000248B26EC30E0378B268B118E128E138EA9
:10231000148EE0E8F5E01382128284839583A6830D
:10232000B7838CE192E09183808381E696E083DF3E
:102330008BE596E080DFEEEAF5E0108211821382F1
:1023400012821482158216821782108612861186D6
:1023500013861486158616861786118A108A128AA5
:10236000138A148A158A168A108E178A118E128E75
:10237000138E148E158E12A213A214A215A216A2E9
:1023800017A210AA11AA12AA13AA14AA15AA16AE65
:1023900017AE1092F2051092F3051092F405109208
:1023A000F5051092FA051092FB05109200061092A6
:1023B000010610920206109203061092080610926F
:1023C000090610920E0610920F0610921006109237
:1023D0001106109216061092170610921C06109203
:1023E0001D0610921E0610921F06109224061092CF
:1023F000250610922A0610922B0610922C06109297
:102400002D06109232061092330682E08093430626
:102410001092440610924506109246061092480605
:102420001092470610924A061092490610924B06E7
:1024300010924C0610924D0610924E0610924F06C6
:1024400010925006109251061092520610925306A6
:102450001092540610925506109256061092570686
:10246000109258061092590610925A06109234068D
:10247000109296051092950582E995E0C1DE8FE8ED
:1024800095E0BEDE8CE895E0BBCECF93DF9300D025
:1024900000D01F92CDB7DEB7789484B5826084BD3A
:1024A00084B5816084BD85B5826085BD85B5816058
:1024B00085BD80916E00816080936E0010928100D6
:1024C0008091810082608093810080918100816091
:1024D0008093810080918000816080938000809152
:1024E000B10084608093B1008091B00081608093DE
:1024F000B000809191008260809391008091910062
:102500008160809391008091900081608093900021
:102510008091A10082608093A1008091A1008160E0
:102520008093A1008091A00081608093A0008091A1
:10253000210182608093210180912101816080933B
:1025400021018091200181608093200180917A0097
:10255000846080937A0080917A00826080937A0010
:1025600080917A00816080937A0080917A008068FF
:1025700080937A001092C10083EE94E00E94A6013D
:1025800086E494E00E94A60169E170E082E995E0AA
:102590000E94890668E170E08FE895E00E94890654
:1025A00067E170E08CE895E00E9489064AE550E01A
:1025B0006AE570E08AE590E032D989E00E94CD01B9
:1025C00088E00E94CD0182E390E05FD983E08093B0
:1025D00097058091950590919605009711F00E94BE
:1025E000421E86E090E00E94A61D8C0187E7F8015C
:1025F000808380E895E092838183138280E290E07B
:102600009583848310939605009395051092DA03C1
:102610001092D90310922304109245040E943405AD
:102620008CE992E09093CA038093C9038DE992E00C
:102630009093CC038093CB0381E0F8018383C8019E
:102640000E94D705882309F461C080ED8F8321E0C3
:1026500030E0AE014F5F5F4FBE01695F7F4F8091F9
:102660009505909196050E9405088981853509F0A8
:102670004DC08AEA0E94A20890939905809398051C
:102680008CEA0E94A20890939B0580939A058EEA9B
:102690000E94A20890939D0580939C0580EB0E9468
:1026A000A2089093A9058093A80582EB0E94A20836
:1026B0009093AB058093AA0584EB0E94A2089093A7
:1026C000AD058093AC0586EB0E94A20890939F0510
:1026D00080939E0588EB0E94A2089093A1058093A9
:1026E000A0058AEB0E94A2089093A3058093A205FF
:1026F0008CEB0E94A2089093A5058093A4058EEB15
:102700000E94A2089093A7058093A6058AE592E00F
:102710000E941E0BEE24E39482E0D82EFF24F39453
:1027200098E9492E9AE3592E612C712C8091650607
:1027300090916606892BA1F0E0916106F091620606
:102740008081882369F080915F0690916006892BD3
:1027500039F0E0915B06F0915C0680818111C4C282
:1027600086E494E00E94FD02181619060CF0BDC321
:1027700086E494E00E94DB02B82E80914B06909193
:102780004C06A0914D06B0914E060196A11DB11DBB
:1027900080934B0690934C06A0934D06B0934E0643
:1027A000F4E2BF1609F47AC2E0914506FB150CF479
:1027B000BEC02AE0B21619F08DE0B8127CC2EF302C
:1027C00008F033C1F0E0EC5CF94F1082A0903306C2
:1027D000AA2009F42CC120913406822F022E000C6D
:1027E000990B3FEB320F363008F0AEC0C797829599
:1027F000807F90913506292F092E000C330B4FEB6B
:10280000490F463008F0A8C027533109820F909134
:1028100032068913F7C08091570690915806A0910F
:102820005906B0915A060196A11DB11D8093570615
:1028300090935806A0935906B0935A068091460685
:10284000882399F080914F0690915006A0915106EF
:10285000B09152060196A11DB11D80934F06909331
:102860005006A0935106B0935206109143061123CF
:1028700009F47BC01130A1F580ED95E00E94ED04D4
:102880008EED95E00E94ED0480914606882341F18B
:1028900087E0EEEBF5E0A0EBB5E001900D928A95B4
:1028A000E1F787E0E5ECF5E0A7EBB5E001900D92EC
:1028B0008A95E1F70E94CB046093CC057093CD0517
:1028C0008093CE059093CF051093AF051093AE057E
:1028D0008CEE95E00E94D7048AEF95E00E94D70421
:1028E0000091490610914A060115110509F407C324
:1028F000E0914906F0914A0666A177A1F80186A108
:1029000097A10E94B01F892B09F0F9C2B801C80134
:1029100040960E94B91F0E94CB04F80160A371A3E6
:1029200082A393A3E5A2E4A202A513A5DDCF9AE2B8
:10293000B91609F444CFFCE2BF12BDC18091320642
:102940008B25809332063BCF2156263018F48755CD
:1029500091094DCFC0974BCF9156963018F427551B
:10296000310954CF2053310951CF8EED95E00E94AB
:10297000ED0480914606882321F187E0EEEBF5E037
:10298000A0EBB5E001900D928A95E1F787E0E5ECC8
:10299000F5E0A7EBB5E001900D928A95E1F70E9472
:1029A000CB046093CC057093CD058093CE059093B6
:1029B000CF05F092AF05F092AE0588E096E00E9458
:1029C000D7048091200690912106A0912206B09113
:1029D000230680931C0690931D06A0931E06B093B9
:1029E0001F060E94CB04609318067093190680930B
:1029F0001A0690931B06F0921706F092160684E2D0
:102A000096E06CCF8091530690915406A0915506A4
:102A1000B09156060196A11DB11D80935306909367
:102A20005406A0935506B0935606A12C68C2809117
:102A30004406811144C063E672E084E396E00E949C
:102A4000B01F892B41F069E672E084E396E00E94B2
:102A5000B01F892BF1F4F0924306809147069091C4
:102A6000480690934A0680934906009149061091C2
:102A70004A0601151105C9F264E376E0F80186A162
:102A800097A10E94B01F97FF33C2F80182A593A5BA
:102A9000E8CF6FE672E084E396E00E94B01F892BD6
:102AA00041F065E772E084E396E00E94B01F892B55
:102AB00019F410924306D1CFD0924306CECFE091C5
:102AC0004306E23009F44AC090913406992309F490
:102AD00045C020E2E29FF0011124E82B3197E93252
:102AE000F10508F03BC08827E758FA4E8F4F0C9449
:102AF0009E1DA215E315EA15F115F41521162816E9
:102B000034164116AE15AE15AE15AE15AE15AE1592
:102B1000AE15AE15AE15AE15AE15AE15AE15AE159D
:102B2000AE15AE15AE15AE15AE15AE15AE15AE158D
:102B3000AE15A215DD15E315EA15F115F415FB1513
:102B40000816151684E396E00E94F70C6093E405DE
:102B50007093E5058093E6059093E705009149069B
:102B600010914A06A09044060115110509F45DCFA5
:102B7000E0914906F0914A0666A177A1F80186A185
:102B800097A10E94B01F892B09F04FCFF80120A513
:102B900031A58A2D90E0821793070CF446CF2817B1
:102BA000390739F440E150E064E376E0C8010E945F
:102BB000C01FF80102A513A5D5CF81E0913409F417
:102BC00044C080E042C06EEB75E084E396E00E9472
:102BD000700CC4CF81E0933509F080E08093C40588
:102BE000BDCF65EC75E0F1CF81E0973509F080E06D
:102BF0008093CB05B3CF84E396E00E94F70C6093FB
:102C0000F6057093F7058093F8059093F905A6CF24
:102C100084E396E00E94F70C609304067093050627
:102C2000809306069093070699CF84E396E064D2DA
:102C30006093D6057093D7058093D8059093D905F6
:102C40008DCF81E091330CF4BCCF8093460686CFC4
:102C500084E396E051D2609320067093210680931E
:102C60002206909323067ACF84E396E00E94F70C25
:102C700060932E0670932F06809330069093310652
:102C80006DCF84E396E00E94F70C60931206709378
:102C90001306809314069093150660CF1092450694
:102CA0001092440610923206D092430610923306D8
:102CB0001092460655CDEE3040F481E08E0F8093A1
:102CC0004506F0E0EC5CF94FB0828091330681114B
:102CD00047CD80913206B826B092320641CD82EAC5
:102CE00092E00E941E0B3CCD8BE792E00E941D0BF0
:102CF00086E892E00E941D0B4091650650916606A1
:102D0000609161067091620683EE94E00E949F02DA
:102D10008AE292E00E94A40A8BE792E00E941D0BD7
:102D200084E992E00E941D0B40915F06509160067D
:102D300060915B0670915C0683EE94E00E949F02B6
:102D40008AE292E00E94A40A88E30E945F04BC0128
:102D5000990F880B990B61D49B01AC01CFD520E072
:102D600030E040E85AE3B8D420E030E040E85FE3E8
:102D7000C4D56093D5037093D6038093D703909303
:102D8000D80387E30E945F04BC01990F880B990B5D
:102D900044D49B01AC01B2D520E030E040E85AE3D6
:102DA0009BD420E030E040E85FE3A7D56093D103F7
:102DB0007093D2038093D3039093D40386E30E944D
:102DC0005F04BC01990F880B990B27D49B01AC01C0
:102DD00095D520E030E040E85AE37ED420E030E0B2
:102DE00040E85FE38AD56093CD037093CE03809370
:102DF000CF039093D00384EB92E00E941D0B60916F
:102E0000D5037091D6038091D7039091D80342E007
:102E10000E942A0B81EC92E00E941D0B6091D1036D
:102E20007091D2038091D3039091D40342E00E9429
:102E30002A0B85EC92E00E941D0B6091CD037091EE
:102E4000CE038091CF039091D00342E050E00E94E6
:102E5000030C6091D5037091D6038091D7039091B4
:102E6000D8030E94C7078C016091D1037091D203EF
:102E70008091D3039091D4030E94C7075C016091B5
:102E8000CD037091CE038091CF039091D0030E9427
:102E9000C707AC01B501C8010E940F0C89EC92E094
:102EA0000E941D0B0E94C0080E94F40A82EE92E06C
:102EB0000E941E0B0E94C0089B01AC0120583843A1
:102EC00041405109AFEFB0E0D7D4A3019201B8D48B
:102ED000C9010E94450C8AE292E00E94A40A64EFB4
:102EE00071E080E090E00E949B040E94A8031ECC49
:102EF000892B09F49ACD10924A06109249068091C6
:102F000044068F5F809344061092450681E0FAE202
:102F1000BF1280E080933306AA2009F421CC80916F
:102F2000AE05882309F4DBCE8BE792E00E941D0BEF
:102F300086E892E00E941D0B1092AF056091B205E9
:102F40007091B3058091B4059091B50564D328E2E2
:102F50003BE64EE65EE436D54B015C016091B00580
:102F60007091B10590E080E056D39B01AC01C501A2
:102F7000B401C4D42091B6052111905846E050E028
:102F80000E94030C8BE792E00E941D0B84E992E003
:102F90000E941D0B1092AF056091B9057091BA05A2
:102FA0008091BB059091BC0536D328E23BE64EE606
:102FB0005EE408D54B015C016091B7057091B805DE
:102FC00090E080E028D39B01AC01C501B40196D408
:102FD0002091BD052111905846E050E00E94030C5D
:102FE0001092AF056091B2057091B3058091B40560
:102FF0009091B50510D328E23BE64EE65EE4E2D4BC
:103000004B015C016091B0057091B10590E080E0EA
:1030100002D39B01AC01C501B40170D4AB01BC016A
:103020008091B60581117058CE0101960E94C50DA0
:10303000BE016F5F7F4F81E696E00E944A0DCE0190
:1030400001960E94950D1092AF056091B90570919F
:10305000BA058091BB059091BC05DDD228E23BE624
:103060004EE65EE4AFD44B015C016091B705709110
:10307000B80590E080E0CFD29B01AC01C501B4015E
:103080003DD4AB01BC018091BD0581117058CE01CA
:1030900001960E94C50DBE016F5F7F4F8BE596E0E4
:1030A0000E944A0DCE0101960E94950D59CB8BE5E9
:1030B00096E00E94950D81E696E00C94950DEF92B6
:1030C0000F931F93CF93DF93E80134E047FD34E182
:1030D000042E000C550B57FF03C051954195510923
:1030E000E32E022F242FAE0142D0CE01DF91CF91EB
:1030F0001F910F91EF9008951F93FC019927882746
:10310000BC01E89411911032E9F3193010F01E302F
:10311000C8F31B3249F01D3241F4689405C012D047
:10312000610F711D811D911D119110531A30B8F35B
:103130003EF490958095709561957F4F8F4F9F4F8E
:103140001F910895592F482F372F262F660F771F6D
:10315000881F991F660F771F881F991F620F731FA3
:10316000841F951F660F771F881F991F08958F92E0
:103170009F92AF92BF92CF92DF92EF92FF920F9306
:103180001F93CF93DF9300D000D000D0CDB7DEB730
:103190006A01F22EB02E102FFBE3AF2EA01608F41A
:1031A0001BE31F5F012F27E0AE014F5F5F4F57D139
:1031B000BC018981982F9970913009F44EC09BE22F
:1031C000E1FC04C09E2D9170E0FC49C05E2D507161
:1031D000E82FE87083FF55C084E0911101C083E0BF
:1031E000EF2DE81B8F1508F0E0E0D6018E2F20E2CE
:1031F0005523C9F1992329F0D6019C93C601019664
:103200006C0196012D5F3F4FE2FE33C08EE4D60184
:103210008C9391E411969C93119712968C93D901FB
:103220008E2F90E281112AC0E20FF32FF11D108240
:103230008EEF9FEF29960FB6F894DEBF0FBECDBF7D
:10324000DF91CF911F910F91FF90EF90DF90CF9082
:10325000BF90AF909F908F9008959DE2B7CF90E27E
:10326000B5CF2D9381508111FCCFCE0ED11CE0E063
:10327000C1CF8EE6D6018C9391E6CCCF9D93815041
:10328000D1CF482F447082FF3DC084E0911101C02E
:1032900083E08F1510F4EF2DE81BD6018E2F20E26E
:1032A000552309F1992329F0D6019C93C601019673
:1032B0006C0196012D5F3F4FE2FE1BC089E4D601F1
:1032C0008C938EE411968C93119786E412968C93CE
:1032D000D9018E2F90E2882309F4A6CF9D938150C7
:1032E000FACF2D9381508111FCCFCE0ED11CE0E09E
:1032F000D9CF89E6D6018C938EE611968C931197DF
:1033000086E6E4CF9B0177FF02C030E020E0A1E039
:10331000B0E0911102C0B0E0A0E0F9013196AE0F2B
:10332000BF1F8B2C912CBB2009F461C05401EFEF1F
:10333000AE1ABE0AAA0DBB1DFA161B0619F014F030
:103340004F2D4A1B511188C0E3FC59C07601A42FB0
:10335000B0E2A1114FC0C40ED11C992309F45BC087
:1033600040E0D6011196F60190836D01552309F4D2
:1033700048C0012F060F9A81582F507184FF03C057
:10338000913309F4015010160CF047C0093008F0D1
:1033900008E0EEE2FE2E5B01A01AB10885019194CF
:1033A000819491082F3F320729F4D601FC92F6014F
:1033B00031966F016217730794F1021713077CF5BA
:1033C000DB01A21BB30BAA24A394B12CAC0EBD1E2F
:1033D000AA0DBB1D11968C9121503109D601119671
:1033E00028153905F4F0F60180836D01DBCFB12C8F
:1033F000A12CA0CFF701B1937F01A150AACF9111C9
:10340000B0CFD601942F50E302C05D93915091113B
:10341000FCCFC40ED11C40E0ACCF01E0BACF80E3BA
:10342000DBCF6217730731F4963388F4953311F4C8
:10343000552369F0F6018083FD01842F90E281110C
:1034400008C0A40FB11D1C9290E080E0F3CE81E390
:10345000F1CF91938150F3CF911183CF8ACF283050
:1034600008F027E03327DA01990F311D87FD9160BD
:1034700000966105710539F432602E5F3D9330E3AB
:103480002A95E1F708959F3F30F080387105610576
:1034900009F03C5F3C5F3D93913008F08068911DDE
:1034A000DF93CF931F930F93FF92EF92192F987F83
:1034B0009695E92F96959695E90FFF27E25CFE4FCA
:1034C00099273327EE24FF24A701E70105900894EC
:1034D000079428F4360FE71EF81E491F511D660F8A
:1034E000771F881F991F0694A1F70590079428F469
:1034F000E70EF81E491F561FC11D770F881F991F21
:10350000661F0694A1F70590079428F4F80E491F4A
:10351000561FC71FD11D880F991F661F771F06945E
:10352000A1F70590079420F4490F561FC71FD81F15
:10353000990F661F771F881F0694A9F7849110952D
:10354000177041F0D695C79557954795F794E7942E
:103550001A95C1F7E4EEF0E0689415901591359155
:103560006591959105907FE27395E118F10A430BFF
:10357000560BC90BD009C0F7E10CF11E431F561FB3
:10358000C91FD01D7EF4703311F48A95E6CFE894FC
:10359000015030F0080F0AF40027021708F4202F1A
:1035A0002395022F7A3328F079E37D932A95E9F762
:1035B00010C07D932A9589F606949795679537955F
:1035C00017951794E118F10A430B560BC90BD00954
:1035D00098F023957E9173957A3308F070E37C938D
:1035E0002013B8F77E9170617D9330F0839571E37D
:1035F0007D9370E32A95E1F71124EF90FF900F91EE
:103600001F91CF91DF91992787FD9095089540D024
:1036100008F481E00895E89409C097FB3EF4909582
:103620008095709561957F4F8F4F9F4F9923A9F09B
:10363000F92F96E9BB279395F6958795779567952A
:10364000B795F111F8CFFAF4BB0F11F460FF1BC06E
:103650006F5F7F4F8F4F9F4F16C0882311F096E901
:1036600011C0772321F09EE8872F762F05C06623AF
:1036700071F096E8862F70E060E02AF09A95660F68
:10368000771F881FDAF7880F9695879597F9089521
:10369000990F0008550FAA0BE0E8FEEF1616170663
:1036A000E807F907C0F012161306E407F50798F0CB
:1036B000621B730B840B950B39F40A2661F0232BE4
:1036C000242B252B21F408950A2609F4A140A69560
:1036D0008FEF811D811D08950BD078C069D028F02F
:1036E0006ED018F0952309F05AC05FC01124A2C013
:1036F0007ED0A0F3959FD1F3950F50E0551F629FA8
:10370000F001729FBB27F00DB11D639FAA27F00D3A
:10371000B11DAA1F649F6627B00DA11D661F829F61
:103720002227B00DA11D621F739FB00DA11D621F46
:10373000839FA00D611D221F749F3327A00D611D63
:10374000231F849F600D211D822F762F6A2F112445
:103750009F5750408AF0E1F088234AF0EE0FFF1F98
:10376000BB1F661F771F881F91505040A9F79E3FCF
:10377000510570F014C05EC05F3FECF3983EDCF37F
:10378000869577956795B795F795E7959F5FC1F70C
:10379000FE2B880F911D9695879597F9089597F9B7
:1037A0009F6780E870E060E008959FEF80EC0895E7
:1037B00000240A9416161706180609060895002410
:1037C0000A9412161306140605060895092E03948A
:1037D000000C11F4882352F0BB0F40F4BF2B11F4FE
:1037E00060FF04C06F5F7F4F8F4F9F4F089557FD5D
:1037F0009058440F551F59F05F3F71F04795880F5F
:1038000097FB991F61F09F3F79F0879508951216F5
:1038100013061406551FF2CF4695F1DF08C01616A1
:1038200017061806991FF1CF869571056105089452
:103830000895E894BB2766277727CB0197F9089569
:10384000052E97FB16F400940FD057FD05D024D019
:1038500007FC02D046F408C050954095309521955C
:103860003F4F4F4F5F4F08959095809570956195AC
:103870007F4F8F4F9F4F089531D0A59F900DB49FDC
:10388000900DA49F800D911D11240895B7FFF4CFD2
:10389000F3DF821B930B0895A1E21A2EAA1BBB1B18
:1038A000FD010DC0AA1FBB1FEE1FFF1FA217B3070C
:1038B000E407F50720F0A21BB30BE40BF50B661F22
:1038C000771F881F991F1A9469F7609570958095E6
:1038D00090959B01AC01BD01CF010895A29FB0015D
:1038E000B39FC001A39F700D811D1124911DB29F34
:1038F000700D811D1124911D08955058BB27AA27D2
:103900000ED064CF55DF30F05ADF20F031F49F3F06
:1039100011F41EF44ACF0EF4E095E7FB40CFE92FF7
:1039200066DF80F3BA17620773078407950718F0FC
:1039300071F49EF57ECF0EF4E0950B2EBA2FA02DDC
:103940000B01B90190010C01CA01A0011124FF274C
:10395000591B99F0593F50F4503E68F11A16F04047
:10396000A22F232F342F4427585FF3CF4695379546
:103970002795A795F0405395C9F77EF41F16BA0B0B
:10398000620B730B840BBAF09150A1F0FF0FBB1FB9
:10399000661F771F881FC2F70EC0BA0F621F731F02
:1039A000841F48F4879577956795B795F7959E3F5F
:1039B00008F0B3CF9395880F08F09927EE0F9795ED
:1039C000879508950CD002CFFADE40F0F1DE30F09A
:1039D00021F45F3F19F0E3CE51112CCFE6CE07DF83
:1039E00098F39923C9F35523B1F3951B550BBB27C6
:1039F000AA2762177307840738F09F5F5F4F220F73
:103A0000331F441FAA1FA9F333D00E2E3AF0E0E86B
:103A100030D091505040E695001CCAF729D0FE2FB7
:103A200027D0660F771F881FBB1F26173707480749
:103A3000AB07B0E809F0BB0B802DBF01FF279358FF
:103A40005F4F2AF09E3F510568F0A9CEF3CE5F3F4D
:103A5000ECF3983EDCF3869577956795B795F795E7
:103A60009F5FC9F7880F911D9695879597F90895DF
:103A7000E1E0660F771F881FBB1F6217730784077B
:103A8000BA0720F0621B730B840BBA0BEE1F88F78A
:103A9000E095089504D06894B111CCCE0895AFDEBE
:103AA00088F09F5790F0B92F9927B751A0F0D1F027
:103AB000660F771F881F991F1AF0BA95C9F712C0B1
:103AC000B13081F0B6DEB1E00895B3CE672F782F24
:103AD0008827B85F39F0B93FCCF38695779567951D
:103AE000B395D9F73EF490958095709561957F4F89
:103AF0008F4F9F4F0895CCDD08F48FEF0895C8DDF8
:103B0000880B990B0895DB018F939F93B5DEBF91CE
:103B1000AF91A29F800D911DA39F900DB29F900D1C
:103B200011240895991B79E004C0991F961708F095
:103B3000961B881F7A95C9F780950895EE0FFF1F91
:103B4000881F8BBF0790F691E02D19940F931F9358
:103B5000CF93DF938230910510F482E090E0E09102
:103B60006906F0916A0630E020E0B0E0A0E030970E
:103B700099F42115310509F44AC0281B390B24306A
:103B80003105D8F58A819B816115710589F1FB01A9
:103B900093838283FE0111C0408151810281138190
:103BA00048175907E0F04817590799F4109761F042
:103BB00012960C93129713961C933296CF01DF91B5
:103BC000CF911F910F9108950093690610936A0693
:103BD000F4CF2115310551F04217530738F0A901F0
:103BE000DB019A01BD01DF01F801C1CFEF01F9CF7F
:103BF00090936A0680936906CDCFFE01E20FF31F12
:103C0000819391932250310939832883D7CF209112
:103C1000670630916806232B41F42091020230910F
:103C200003023093680620936706209100023091CA
:103C300001022115310541F42DB73EB74091040230
:103C400050910502241B350BE0916706F091680640
:103C5000E217F307A0F42E1B3F0B2817390778F063
:103C6000AC014E5F5F4F2417350748F04E0F5F1FC2
:103C70005093680640936706819391939FCFF0E03D
:103C8000E0E09CCFCF93DF930097E9F0FC013297FF
:103C900013821282A0916906B0916A06ED0130E0AC
:103CA00020E01097A1F420813181820F931F209191
:103CB0006706309168062817390709F061C0F0934C
:103CC0006806E0936706DF91CF910895EA01CE1769
:103CD000DF07E8F54A815B819E0141155105B1F787
:103CE000E901FB83EA8349915991C40FD51FEC1771
:103CF000FD0761F4808191810296840F951FE9018F
:103D000099838883828193819B838A83F0E0E0E0BA
:103D100012968D919C9113970097B9F52D913C9136
:103D20001197CD010296820F931F20916706309163
:103D300068062817390739F6309751F510926A0648
:103D400010926906B0936806A0936706BCCFD38330
:103D5000C28340815181840F951FC817D90761F430
:103D60004E5F5F4F88819981480F591F518340836F
:103D70008A819B81938382832115310509F0B0CF1D
:103D8000F0936A06E09369069ECFFD01DC01C0CF87
:103D900013821282D7CF4F925F926F927F928F924F
:103DA0009F92AF92BF92CF92DF92EF92FF920F93CA
:103DB0001F93CF93DF938C01009791F4CB01DF9198
:103DC000CF911F910F91FF90EF90DF90CF90BF9018
:103DD000AF909F908F907F906F905F904F90B6CEF6
:103DE000FC01E60FF71F9C0122503109E217F3078F
:103DF00008F4AAC0D901CD91DC911197C617D70755
:103E000018F1C530D10570F0CE01049786179707D9
:103E100048F0C61BD70B2297C193D1936D937C9327
:103E2000CF0130DFC801DF91CF911F910F91FF903B
:103E3000EF90DF90CF90BF90AF909F908F907F904A
:103E40006F905F904F9008955B01AC1ABD0A4C01D2
:103E50008C0E9D1EA0916906B0916A06512C412CD2
:103E6000F12CE12C109731F580916706909168064E
:103E70008815990509F05CC04616570608F058C029
:103E80008091000290910102009741F48DB79EB796
:103E90004091040250910502841B950BE817F90725
:103EA00008F052C0F0936806E0936706F901718349
:103EB0006083B8CF8D919C91119712966C90129758
:103EC00013967C901397A815B90559F56C0142E03B
:103ED000C40ED11CCA14DB0420F1AC014A195B09E1
:103EE000DA011296159780F06282738251834083C3
:103EF000D9016D937C93E114F10471F0D70113960D
:103F0000FC93EE9312978ECF22968C0F9D1FF90192
:103F100091838083F301EFCFF0936A06E093690603
:103F200081CF4816590608F42C017D01D3019ACFA0
:103F3000CB010CDE7C01009739F0AE01B80107D04F
:103F4000C801A0DE87016ECF10E000E06BCFFB015F
:103F5000DC0102C001900D9241505040D8F7089505
:103F6000FB01DC018D91019080190110D9F3990BAF
:103F70000895FB01DC0101900D920020E1F7089506
:103F8000FB01DC014150504048F001900D920020AF
:103F9000C9F701C01D9241505040E0F7089511E06B
:103FA000C3E7D1E000E005C0802FFE01C7DD219608
:103FB000011DC437D10780E00807B1F7F894FFCF9F
:103FC00000006B068000000000003D039F02CC0251
:103FD0008903FD02DB02EF0200000000A6057A055E
:103FE000D40550057305600551050D0A006E616E1C
:103FF00000696E66006F7666005B534552564F5DF2
:10400000202D20002C005B4D4F544F525D202D2061
:10401000005370656564203D200057414954204796
:104020005053004750524D4300474E524D430047B6
:104030005047474100474E474741005B4750535D5B
:104040002020202D20004C61746974756465202047
:10405000203D20004C6F6E67697475646520203DBB
:104060002000576169742056616C69642044617452
:10407000612E2E005B4759524F5D20202D20583A6B
:10408000002C593A002C5A3A005B424D505D2020DA
:10409000202D204149522050726573737572653A24
:0640A00020002050610029
:00000001FF
